S01000004E65775A4D6F64342E737265633C
S31500000000480A0020691F0000D11D0000651F00007E
S31500000010651F0000651F0000651F0000651F0000CA
S31500000020000000000000000000000000651F000046
S31500000030651F000000000000651F0000651F00002E
S31500000040991500002D1700004D1800002D1900000D
S31500000050B91B0000000000000000000000000000C6
S31500000060000000000000000000000000000000008A
S31500000070000000000000000000000000000000007A
S31500000080000000000000000000000000000000006A
S31500000090000000000000000000000000000000005A
S315000000A0000000000000000000000000000000004A
S315000000B0000000000000000000000000000000003A
S315000000C0000000000000000000000000000000002A
S315000000D0000000000000000000000000000000001A
S315000000E0000000000000000000000000000000000A
S315000000F000000000000000000000000000000000FA
S3150000010000000000000000000000000000000000E9
S3150000011000000000000000000000000000000000D9
S3150000012000000000000000000000000000000000C9
S3150000013000000000000000000000000000000000B9
S3150000014000000000000000000000000000000000A9
S315000001500000000000000000000000000000000099
S315000001600000000000000000000000000000000089
S315000001700000000000000000000000000000000079
S315000001800000000000000000000000000000000069
S315000001900000000000000000000000000000000059
S315000001A00000000000000000000000000000000049
S315000001B00000000000000000000000000000000039
S315000001C00348044B834202D0034B03B118477047E0
S315000001D0680100206801002000000000064B074966
S315000001E0C91A891048BF0131491003D0044B0BB11D
S315000001F001481847704700BF6801002068010020C9
S315000002000000000010B5064C237843B9FFF7D8FF6D
S31500000210044B13B10448AFF300800123237010BDD3
S315000002208801002000000000084B000008B5054BBF
S315000002301BB105490548AFF30080BDE80840FFF74C
S31500000240CDBF00BF000000008C010020084B00005D
S3150000025008B5074B9B68D3E90112186812689047E6
S3150000026000B908BD1921034B034A044801F07CFD7F
S315000002700000002018450000AC4500002C45000099
S315000002800379044A062B137002D00122024B1A701E
S31500000290704700BFBD010020BE0100200379012B7D
S315000002A004BF014A13707047BC01002008B5074B14
S315000002B0D3E9011218681268904700B908BD802179
S315000002C0034B044A044801F04FFD00BF28460000D6
S315000002D0184500008C4500002C45000000232DE940
S315000002E0F047284A284C17689668284D824688B0F9
S315000002F03846726823702B70904700283CD12B78C3
S31500000300002BFCD04FF00008DFF8989085F80080AD
S315000003102378002BFCD069463846336984F8008080
S315000003209847484505D14FF47A71322001F024FDF3
S31500000330EEE7D8B92B7803F0FF04002BFAD07369E7
S3150000034000265246694638462E70984718B9204608
S3150000035008B0BDE8F0870E4B984208BF3446F6D089
S31500000360DB210C4B0C4A0D4801F0FEFCC5210C4B61
S31500000370094A0A4801F0F8FC9A21094B064A07483F
S3150000038001F0F2FC28460000BC010020BE0100205E
S315000003900100030040450000484500002C450000D0
S315000003A0184500000200030008B5FFF751FFFFF7EC
S315000003B07DFF024C2046FFF791FFFBE7A4010020DA
S315000003C0022800D070470249024800F043BE00BF31
S315000003D094460000C001002008B5FFF7E5FF0020A5
S315000003E008BD00BF062070470620704706207047EC
S315000003F00620704738B5C06D1446056A0A46D0E92E
S3150000040006102B4602F090F8002812DB2A680A4BE9
S315000004102260012808BF18466B6818BF0020636079
S31500000420AB68A360EB68E3602B6923616B6963616A
S3150000043038BD012038BD00BF0100030008B5C36DFB
S3150000044093ED010AD3E9061001F09EFE003818BFAD
S31500000450012008BD06207047062070470620704719
S315000004600620704706207047062070470620704712
S315000004700620704706207047062070470620704702
S31500000480C36DDB685B691847C36DDB689B691847FA
S31500000490C36DDB68DB691847C36DDB681B6A1847E9
S315000004A0C36DDB685B6A1847C36DDB689B6A1847D8
S315000004B0C36DDB68DB6A1847C36DDB681B6B1847C7
S315000004C0C36DDB685B6B18470346DB6D002083ED6D
S315000004D0090AC3ED0A0A70474379002B4AD04FF048
S315000004E0000C9FED254ADFED254A9FED255ADFEDED
S315000004F0255A70B513790CF1010E06EE903A836811
S31500000500547913F80C5013F80E30967803EB052344
S3150000051004FA83F307EE903AF8EEE66A07EE106AFD
S31500000520D378F8EEE77A06EE103AB8EE477A76EE2A
S31500000530846AB8EEC66A27EE057A67EEA67A37EEC3
S31500000540067A77EEE47A67EE677A87EEA57AFCEEAE
S31500000550C77A17EE903AC3F3072501F80C5001F855
S315000005600E3043790CF102045FFA84FC6345C1D86E
S31500000570002070BD00207047000020440000FA48AB
S315000005800000804300803B4B2DE9F84391461F4B0A
S31500000590026805469A4288464FF005074FF0000468
S315000005A02CD1A86D4A4683684146DB6800689847A7
S315000005B0064640B9154B2A689A420FD195F8523033
S315000005C0002B18BF12263046BDE8F88301340121FE
S315000005D02846A4B200F0A2FB642C13D895F850303C
S315000005E0002BF3D0094B2A689A42E7D095F852308F
S315000005F0002BE3D0013FBFB2002FDFD0002385F8E8
S315000006005030CEE714263046BDE8F883444F4D5AA5
S3150000061001469323022221F8043FFFF7B5BF00BF2E
S31500000620022210B49324C16D80F8482089690471B0
S315000006304C6A011D94F800C080F805C05DF8044BB3
S31500000640FFF7A2BF10B50446836D9A681868536811
S315000006509847236E13B1204600F082FB00202060ED
S3150000066010BD00BF2DE9F04184B001AF87E80E0050
S31500000670214B026805469A424FF005084FF00004E8
S3150000068030D197E80E00A86D866800683669B047D5
S31500000690064640B9184B2A689A4210D195F852304E
S315000006A0002B18BF1226304604B0BDE8F081013495
S315000006B001212846A4B200F031FB642C16D895F827
S315000006C05030002BF3D00C4B2A689A42E6D095F8AE
S315000006D05230002BE2D008F1FF381FFA88F8B8F143
S315000006E0000FDBD0002385F85030CAE714263046C9
S315000006F004B0BDE8F08100BF444F4D5A90F8482041
S31500000700012A01D00F48704784B05FFA82FC8DF849
S315000007100CC04FF0020C02460291C16D80F848C031
S315000007208B69596A91F8241002F8441F5B6A01929A
S3150000073093F825308DF80D3004AB13E90E0004B0A4
S31500000740FFF790BF0200030003460121B72240F2E3
S31500000750011C84B080F8471003F8442F011D019353
S31500000760ADF80CC0029104AB13E90E0004B0FFF71C
S3150000077079BF00BF2DE9F04F416504460B688946F5
S31500000780C968002208460225A3658DB00091D9F8F4
S315000007900410C4E91701D9F808106166D9F81010D9
S315000007A0A166D9F8141084F84620E16684F848500A
S315000007B084F847209A68D3E9000112689047834677
S315000007C000284AD1226E22B1204600F0AFFA002856
S315000007D042D1E26DD2E9055110690D6115890862B1
S315000007E08D811278022A3CD030304862E26DCDF815
S315000007F00C9093694FF0930A0293231D9946019337
S315000008001FE026466FF06B0340F2011806F8443FDE
S3150000081009970896ADF82880204695E80E00FFF760
S3150000082021FFC8B9C821204600F078FA0BF1010B68
S3150000083090B99DF91430002B15DABBF57A7F00F0DC
S31500000840AE81022249462046A4F804A0FFF79CFE8A
S3150000085005AF08AD0028D4D0834658460DB0BDE894
S31500000860F08F6030C1E7BBF57A7FDDF80C9000F0C1
S315000008709681019B0896099340F20123ADF8283032
S3150000088084F8440095E80E002046FFF7EBFE834609
S315000008900028E2D1A388029A5BBA92899BB29A4257
S315000008A002D04FF0060BD8E706238DF82930202317
S315000008B0029A84F84430531C0993204695E80E00AA
S315000008C0FFF7D0FE83460028C7D12623029A84F874
S315000008D04430536A126993F82C3009928DF8293006
S315000008E0204695E80E00FFF7BDFE83460028B4D1EA
S315000008F0B723E26D0890D2F818A0019AADF81C80D3
S3150000090005960692C5E90100E86084F84430204661
S3150000091097E80E00FFF7A6FE834600289DD1DAF879
S315000009202080294640460AF10102FFF7D5FD83469D
S31500000930002892D198F804302371DAF820305A79D9
S315000009404AB1012311F801CB581C234483F804C093
S31500000950C3B29A42F6D2204601990132FFF714FE3D
S31500000960834600287FF479AFDAF820301B7B2371A9
S31500000970DAF820305A7B1969012342B111F801CB0C
S31500000980581C234483F804C0C3B29A42F6D22046C8
S3150000099001990132FFF7F8FD834600287FF45DAF29
S315000009A0DAF820301B7D2371DAF820305A7D9969F8
S315000009B0012342B111F801CB581C234483F804C02B
S315000009C0C3B29A42F6D2204601990132FFF7DCFD06
S315000009D0834600287FF441AFDAF820301B7F23716D
S315000009E0DAF820305A7F196A012342B111F801CB97
S315000009F0581C234483F804C0C3B29A42F6D2204658
S31500000A0001990132FFF7C0FD834600287FF425AF28
S31500000A10226E0AB184F8510093232371DAF820304C
S31500000A2002221B78204601996371FFF7ADFD8346CC
S31500000A3000287FF412AF236E002B00F0B38094F8E9
S31500000A405130002BFBD0002384F851304FF00108C1
S31500000A50DAF82030204693F82430059684F844309E
S31500000A60019B8DF81C800693DAF8203093F8253028
S31500000A708DF81D3097E80E00FFF7F4FD8346002839
S31500000A807FF4EBAEA38808905BBAAAF80A30E38835
S31500000A90C5E901005BBAAAF80830E36DE8609E6913
S31500000AA02946776A06EB08023846FFF715FD8346A6
S31500000AB000287FF4D2AE3B792371736A5A7952B11A
S31500000AC015F8011B08F10103A04488F804105FFA29
S31500000AD083F84245F4D2204601990132FFF754FDCE
S31500000AE0834600287FF4B9AE736A1B7B2371736A51
S31500000AF05A7B196901233AB111F8015B581C23444A
S31500000B001D71C3B29A42F7D2204601990132FFF70E
S31500000B103BFD834600287FF4A0AE736A1B7D2371DC
S31500000B20736A5A7D996901233AB111F8015B581C21
S31500000B3023441D71C3B29A42F7D22046019901326D
S31500000B40FFF722FD834600287FF487AE736A1B7F7A
S31500000B502371736A5A7F196A01233AB111F8015B4E
S31500000B60581C23441D71C3B29A42F7D220460199FC
S31500000B700132FFF709FD834600287FF46EAE009B25
S31500000B804946DB6820461B689847834600287FF461
S31500000B9064AE5846144A22600DB0BDE8F08F4FF09F
S31500000BA0140B5AE64FF094080BE03221204600F071
S31500000BB0B5F800287FF450AE9DF91330002BBFF630
S31500000BC045AF0DF11303069340F201130596ADF8F8
S31500000BD01C30204697E80E0084F84480FFF742FD5B
S31500000BE00028E2D0834638E6444F4D5A03464FF07C
S31500000BF0020C0121942200B540F2011E85B080F856
S31500000C0048C080F8461003F8442F00F145010193CF
S31500000C10ADF80CE0029104AB13E90E0005B05DF8E7
S31500000C2004EBFFF71FBD00BF30B503680279D96D2D
S31500000C30586E83B08C69009062B98DF804202A48FA
S31500000C401D68854218D0012183F8501083F8522080
S31500000C5003B030BD06228DF8042023491868884267
S31500000C60F1D193F8462093F847209B6E002BEFD0E6
S31500000C706846984703B030BD93F84620C2B108785D
S31500000C8093F845200C2827D841F22201C140CD0710
S31500000C9022D5616A02F01F02497F49080139914253
S31500000CA01CD002228DF80420002283F84620DCE7BF
S31500000CB093F84720002AD8D01A79510608D412068C
S31500000CC044BF03228DF80420002283F84720CCE796
S31500000CD004228DF80420F7E71006E2D401228DF8ED
S31500000CE0042083F84820DFE7444F4D5A03681A680A
S31500000CF01AB9012283F851207047012200B5586EB7
S31500000D00D96E83B000908DF8042083F8482009B18D
S31500000D106846884703B05DF804FB00BF08B508467F
S31500000D204FF47A7101F028F8002008BD70B5046E02
S31500000D300546D4E9011320681B68984768B9A1687D
S31500000D4003462A462068CD680449A84728B9A368FF
S31500000D5020685B68BDE87040184770BDED0C000068
S31500000D6008B5036E9A68186813699847002008BD8D
S31500000D700346002230B419604D68064C5D608D68EC
S31500000D8010469D600D69DD61C9681A761962DC60DE
S31500000D9030BC704721332C32034600225968104676
S31500000DA04A60DA60704700BF00F02AB800F04AB81F
S31500000DB084B00DF1040C8CE80E009CE80E0004B023
S31500000DC000F058B843685A68824217D070B59D68DB
S31500000DD08668AB680446327B1B69B1682868984709
S31500000DE058B9626803465460A96822464C69286867
S31500000DF0A446F169BDE87040604770BD00207047A9
S31500000E002DE9F041436804460E461746D3F808809C
S31500000E10FFF7D8FFA0B9227E0546002A03461ABF6F
S31500000E203D463046002025616061D8F808403A46C4
S31500000E3064683146A446D8F80000BDE8F041604732
S31500000E40BDE8F0812DE9F041436804460F4615469A
S31500000E509E68FFF7B7FF58B9C4E904000346B068B7
S31500000E602A4684683946A4463068BDE8F0416047A2
S31500000E70BDE8F08130B585B004AC04E90E004368E6
S31500000E8004469D68FFF79EFF80B9029A9DF80D30D3
S31500000E900199C4E90432AA68012394682868A44623
S31500000EA09DF80C2005B0BDE83040604705B030BD68
S31500000EB070B5046803796268216A023B82B0012B2F
S31500000EC09268009116D8002561698DF80450C1B169
S31500000ED0936810685E6822692B46B047C4E90455DA
S31500000EE030B10322E3698DF804200BB168469847B8
S31500000EF002B070BD93681068DB68984703238DF8CD
S31500000F000430E369002BF1D102B070BD2DE9F84F32
S31500000F100388DBB180464FF000094FF0010BDFF884
S31500000F2084A000241E4D4FEAC907D8F8043035F8CE
S31500000F30022BD919898891420AD00134032CF4D1A5
S31500000F40B8F8003009F101094B45EAD8BDE8F88F39
S31500000F50DB590BFA04F603F0B853B3F1807FF6B20F
S31500000F609AF8BB340ED03342E7D0012000F0D0FF10
S31500000F709AF8BB34012023EA06038AF8BB3400F052
S31500000F8097FFDAE73342D8D1012000F0C1FF9AF883
S31500000F90BB34012033438AF8BB3400F089FFCCE729
S31500000FA0804A000000E00140F8B50646FFF7AEFFB4
S31500000FB0EFF31082012383F31088234F3B681BB99C
S31500000FC02249CB704023CB703B6801333B6082F3F0
S31500000FD01088338823B300211D4D08E01B011344FC
S31500000FE045F82340328801318BB29A4218D973688A
S31500000FF053F8314003EBC1029288E0034FEA122313
S31500001000D2B2EBD502EB031055F820E024F4803C75
S315000010102EF4803E45F820E01B0145F820C0DEE7AF
S31500001020EFF31082012383F310883B6813B13B680A
S31500001030013B3B603B681BB980200449CB70C870FC
S3150000104082F31088F8BD00BF7C030020000D084025
S315000010500008084008B5034B03600846FFF7A4FFE5
S31500001060002008BD54524F500346002059601A72A2
S31500001070704700BF84460020CCE90E32CCF834100D
S31500001080704700BF0346044ADB6800209B1AB3FA88
S3150000109083F35B090B7070474349495230B5836B44
S315000010A083B004460A466D46A3B193E8030085E87B
S315000010B00300E16B1A7119601846636B9847A36BBE
S315000010C01BB195E8030083E80300002384F82B3066
S315000010D003B030BD2B46ECE730B5424B83B01B6AFC
S315000010E001690193019B03F00F230193019A019D6E
S315000010F00B7C90F82C4094B9C2F30322DBB2A2EB2E
S31500001100156293409B0804D1082003B030BD013B13
S31500001110FAD04A78D209FAD1B323CB7101690023F8
S3150000112090F82620846980F82720026880F82B3002
S31500001130C46180F82D3080F8283080F82E300362A4
S3150000114080F82F3080F83030546A227894F801E025
S31500001150012A14BF4FF0040C4FF0050C62791201FE
S3150000116042EA4E0294F806E042EACE124CEA020245
S31500001170D2B2CA7001690A7942F010020A71016995
S315000011800A7963F3C3020A7101690A7963F30412E7
S315000011900A710269E179137961F3C7131371026960
S315000011A0537943F001035371036893F90F30002B11
S315000011B007DB012203F01F040B495B09A24041F83B
S315000011C02320BF220369DA7190F82C302BB100235B
S315000011D080F82C30002003B030BD022203695A701B
S315000011E0F8E700BF00E0014000E100E090F808C029
S315000011F0C0E90512BCF1010F80F82A3008D100229F
S31500001200436880F826C05B0080F8243080F82520EB
S31500001210002380F82930FFF75FBF00BF90F808C0B1
S31500001220C0E90512BCF1010F80F82A300AD100226C
S31500001230436880F826C05B0043F0010380F8243041
S3150000124080F82520012380F82930FFF745BF00BF2D
S315000012502DE9F0434FF01F085F27DF260569DFF809
S31500001260B49185F8008005694FF0000C2F70056970
S315000012704FF0B30E2E700568634A6E6A05693679BB
S31500001280624C46F0E0062E740568614B6E6A05698D
S31500001290F67846F0E0066E7405686E6A0569B678FB
S315000012A0360106F0700646F00806AE7005686E6AEE
S315000012B005693778012F777814BF0426052646EA94
S315000012C04706F6B2EE7005686E6805694E4514BFAE
S315000012D07726F7266E71056985F806C0056985F8D3
S315000012E007E04E7B91F9115036015719F6B287F88F
S315000012F0006344F8250005F1C00653F826706CF328
S31500001300104743F8267053F82660BFF35F8F4FF0FF
S31500001310010E6E09B60005EA080506F1604606F5F7
S3150000132061460EFA05F5C6F8805135604E7B91F997
S315000013300F5036015719F6B287F8006344F82500B6
S3150000134005F1C00653F826706CF3104743F8267073
S3150000135053F82660BFF35F8F6E09B60005EA0805ED
S3150000136006F160460EFA05F506F56146C6F88051A7
S3150000137035604E7B91F9105036015719F6B287F851
S31500001380006344F8250005F1C00653F826706CF397
S31500001390104743F8267053F82660BFF35F8F6E0937
S315000013A0B60005EA080506F160460EFA05F506F5EB
S315000013B06146C6F8805135604D7B91F90E102D01BE
S315000013C00A44EDB282F8005344F8210001F1C0024C
S315000013D053F822406CF3104443F8224053F822306D
S315000013E0BFF35F8F4B099B0001EA080103F16043DD
S315000013F00EFA01F103F56143C3F8801119609F22CB
S3150000140003691A70BDE8F08300E100E08003002064
S315000014100060004040420F0070B500250A78016068
S3150000142002F5800202F51F62120202618A684260BA
S315000014300A7B0272CA6942630A6AC0E90E52EFF376
S31500001440108C012282F310880B78C3F109039A40AD
S315000014500C4B5E6826EA02025A605B688CF31088C1
S31500001460FFF7F6FEC0E90755074B80F8295045619E
S3150000147080F82A50856180F82B50C36080F82C5084
S31500001480284670BD004008404349495238B50025FA
S315000014900369DD710168FFF7DBFEB322836990F80B
S315000014A026100362036980F82C50C56180F8281065
S315000014B080F82A50DA71284638BD00BF38B50025B5
S315000014C004460369DD710168FFF7C2FEB3200123FC
S315000014D094F8262084F82C5084F82820A269E56127
S315000014E02262226984F82A50D07122692849D5716E
S315000014F02268E56092F91120500902F01F0203FAF2
S3150000150002F2203041F82020BFF34F8FBFF36F8FD8
S31500001510226892F90E20500902F01F0203FA02F225
S31500001520203041F82020BFF34F8FBFF36F8F226822
S3150000153092F91020500902F01F0203FA02F220303D
S3150000154041F82020BFF34F8FBFF36F8F226892F9C7
S315000015500F20500902F01F0203FA02F2203041F870
S315000015602020BFF34F8FBFF36F8FEFF3108083F30D
S3150000157010882168074A0978C1F109018B40516832
S315000015800B435360536880F31088284638BD00BF6C
S3150000159000E100E00040084010B582B0EFF303839D
S315000015A0103B5F4A5BB2C03352F8231021F48031FE
S315000015B042F8231052F82330EFF30383594A103BC5
S315000015C05BB252F8234094F82D305BBBA369022B23
S315000015D022D9E369012B0ED12269137943F0100356
S315000015E013712269137943F0080313712269137981
S315000015F023F01003137123685B6ADB79002B3ED15D
S3150000160001222369DB7CDBB28DF807309DF80730B9
S3150000161084F82D2002B010BD2269137943F04003EF
S315000016201371D6E7E369002BF4D02268526AD279A7
S31500001630FAB9032B17D0022B26D0012B34D02269FE
S31500001640236AD17C6269D154D4E907320132013B65
S31500001650C4E90732002BDDD121690A7963F38612CA
S315000016600A7102B010BD2269137943F04003137169
S31500001670E5E705212046FFF711FDE369D9E70521D6
S315000016802046FFF70BFDBBE72269137943F01003F1
S3150000169013712269137943F00803137122691379D0
S315000016A023F010031371CAE794F82A2072B3226854
S315000016B01D4892F90F20510902F01F0203FA02F2A7
S315000016C0203140F82120BFF34F8FBFF36F8F0420E6
S315000016D02169CA7942F08002CA7121690A7942F009
S315000016E010020A7121690A7922F008020A71216939
S315000016F00A7922F010020A712269507021694A792A
S3150000170022F001024A7184F82C3098E708212269F8
S31500001710537A03F0F7035372236959708FE700BFBA
S31500001720006000408003002000E100E010B5EFF308
S315000017300383103B424A5BB2C03352F8231021F4B4
S31500001740803142F8231052F82330EFF303833D4AE9
S31500001750103B5BB252F8234094F82730002B3FD160
S3150000176094F82930002B3AD123685B6ADB792BB1D8
S3150000177094F82B3013B9236A002B5BD1E3692169F6
S31500001780002B40D1CB79C02223F08003CB71216995
S3150000179001E0013A02D0CB79DB09FAD12368284A65
S315000017A093F91030C03352F8231021F4803142F8F7
S315000017B0231052F82330236893F91030002B09DBED
S315000017C001215A09204803F01F03603201FA03F38E
S315000017D040F822302269D37943F04003D37110BD1B
S315000017E094F82630032B1CD094F8242023699A748D
S315000017F094F8282094F827300132013B84F82820F9
S3150000180084F8273010BD236A6269D35C8B74D4E9EF
S3150000181007320132013BC4E90732002BDFD12169CF
S31500001820B0E794F82830022BDED194F83030002B44
S31500001830DAD110BD05212046FFF730FC9EE700BF38
S31500001840006000408003002000E100E038B5EFF3BF
S315000018500383334A103B5BB252F8234023685B6A2A
S31500001860DB79002B48D194F829301BB194F8273046
S31500001870012B4FD0E369DBB12169C023CA7922F07D
S315000018804002CA71216901E0013B02D0CA795206C1
S31500001890FAD4EFF30383103B224A5BB2C03352F80B
S315000018A0231021F4803142F8231052F8233038BD3A
S315000018B094F82A202AB3012022681B4D92F90F20A2
S315000018C0510902F01F02203100FA02F245F82120E8
S315000018D0BFF34F8FBFF36F8F2169CA7942F0800241
S315000018E0CA7104212269517021694A7963F30002A1
S315000018F04A7184F82C00BFE705212046FFF7CEFB8E
S31500001900B1E708212269537A03F0F703537223697A
S315000019105970B1E794F83030002BADD0AAE700BF7C
S31500001920800300200060004000E100E038B5EFF3DE
S3150000193003834C4A103B5BB252F823000269537A88
S31500001940517ADC0601F0E00151725FFA83FC03F084
S3150000195003022BD503695978490647D4002401258B
S3150000196080F82B50DC710168FFF772FCB32290F807
S31500001970263080F82C4080F82830C46180F82A4050
S315000019800369846929460462DA71FFF787FBEFF37E
S315000019900383103B344A5BB2C03352F8231021F460
S315000019A0803142F8231052F8233038BD002A56D130
S315000019B01CF0080F0ED090F82B30002B3ED1B3222E
S315000019C090F829100369C1F10301C9B2DA71FFF772
S315000019D065FBDCE790F82C200CF004032AB3002BFF
S315000019E0D5D090F82B30002B37D1E8E7002AB5D1B7
S315000019F05A78C2F380115206DAD5082280F82B10E5
S31500001A005A70036801695A6A94791378527943EADD
S31500001A10C41343EA021343F00203DBB2CB7002693C
S31500001A20537943F001035371B1E7002BAFD003683C
S31500001A305B6ADB79002BAAD00421C8E70023B32117
S31500001A4090F826508469026980F82C3080F8285076
S31500001A500462C36180F82A30D1710121B7E70369B6
S31500001A607CE700BF800300200060004070B40025C2
S31500001A70034691F902201A4C0271920002F180424B
S31500001A8002F5C042D2F80063C2F800538A68826049
S31500001A90CA68C2600878587125540D79CA7842EA36
S31500001AA005124D7942EAC512D2B2225493F90420A6
S31500001AB0C03244F8226093F9040000280BDB4A7810
S31500001AC0084C120100F16041D2B201F5614181F882
S31500001AD0002344F82030044A00201A6070BC704786
S31500001AE000600040800300205543490090F904201F
S31500001AF00E4B02F1C00153F8210020F4803043F868
S31500001B00210053F82130BFF35F8F012153099B0059
S31500001B1002F01F0203F1604303F5614301FA02F28A
S31500001B20C3F880211A600020704700BF00600040A3
S31500001B30012110B490F90430084C5A0903F01F0330
S31500001B40994002F1200344F82310BFF34F8FBFF3EF
S31500001B506F8F00205DF8044B704700BF00E100E086
S31500001B6003460020C3E90212704700BF90F9042023
S31500001B700346002A19DB012010B451090C4C02F06F
S31500001B801F02203100FA02F244F82120BFF34F8FE2
S31500001B90BFF36F8F0020074A93F9041042F8210023
S31500001BA0002018605DF8044B7047002018607047ED
S31500001BB000E100E08003002010B582B0EFF303845B
S31500001BC0184B103C64B253F82410174A4879135C3A
S31500001BD003F00303032B12D0C03452F8243023F44D
S31500001BE0803342F8243052F824308B682BB1487980
S31500001BF0CA68CDE900206846984702B010BD8B68D8
S31500001C0023B1CA68CDE9002068469847064BC03420
S31500001C1053F8242022F4803243F8242053F8243049
S31500001C2002B010BD8003002000600040064B07494B
S31500001C3093F826001A6A51F82030C2F3026204496A
S31500001C40D3400B60704700BF00E0014068010020F0
S31500001C50080500204AF2035001232F492F4A2DE997
S31500001C60F043A1F8FE03A2F80431B2F804319BB2A6
S31500001C70002BFAD101244FF4004529482949C0E92F
S31500001C8003338560A2F80041274A8C600C6002602D
S31500001C90264A01F5B83191F8265042600A6A81F861
S31500001CA0804481F83630224B436191F83C30DA07A4
S31500001CB0FBD542F211740023174A0C8581F82A30AD
S31500001CC092F83C309B06FBD505244FF0030901230F
S31500001CD0F1254FF0F00E4FF4254CDFF84080154FFC
S31500001CE088F81C91176282F8264092F8264012491D
S31500001CF050F82400146A114EC4F30264E0403060C8
S31500001D000D730B7281F80CE082F8303082F8523095
S31500001D10A2F8FEC3BDE8F08300E0014000C0014028
S31500001D206801002000700040002D310100127A0089
S31500001D3000C2EB0B21120120002000400805002004
S31500001D4010B50024064B012083F8284000F0E0F887
S31500001D50044B012083F8BB44BDE8104000F0A8B84E
S31500001D600030084000E0014000BEFEE7A0F101009F
S31500001D700028FBD1704700BF4FF47A7310B400FB04
S31500001D8001F1114C114A2468B2FBF4F2A1FB0304E1
S31500001D903CB9B0FBF2F0800860B15DF8044BFFF788
S31500001DA0E5BF9200B1FBF2F1A1FB03132BB9084684
S31500001DB00028F2D15DF8044B70474FF0FF3C5DF808
S31500001DC0044B6046FFF7D2BF0805002000CA9A3BC5
S31500001DD070B500240B4B0C4EB3F82021B3F84051DC
S31500001DE0ADB2154025FA04F3DB0704D556F82430C6
S31500001DF0E0B203B198470134102CF3D1014BA3F89C
S31500001E00305170BD006000403C03002030B5032017
S31500001E1085B000F07DF86FF0FF054FF0FF31204CE4
S31500001E20002322464FF0010E1E488564CDE90111BC
S31500001E30039104F1C00532F8020F590960B104A8F4
S31500001E4000EB810151F80C0C03F01F0C0EFA0CFC90
S31500001E5020EA0C0041F80C0C954203F10103EAD18B
S31500001E600199114B0F4A03201167C3F8801202999A
S31500001E705167C3F8841203999167C3F8881200F07A
S31500001E8017F80023094834F8022F03F1C001013383
S31500001E900AB140F82120A542F5D105B030BD00BFFA
S31500001EA01E4900000080004000E100E000600040A4
S31500001EB0EFF31081012383F31088124B33F81020BF
S31500001EC092B22AB133F81020013A92B223F81020C8
S31500001ED033F810309BB293B910B40B4A0B4CB2F8DE
S31500001EE0FE3334F810009BB243F4254323EA000383
S31500001EF0A2F8FE3381F310885DF8044B704781F336
S31500001F00108870470005002000E00140BC4A000030
S31500001F1030B4EFF31081012383F310880E4A32F8B0
S31500001F2010309BB26BB90D4C0D4DB4F8FE3335F83D
S31500001F3010C09BB243EA0C0343F425439BB2A4F8BA
S31500001F40FE3332F8103001339BB222F8103081F3A1
S31500001F50108830BC704700BF0005002000E001403B
S31500001F60BC4A000000BE704708B500F003F8FEF753
S31500001F7033FAFEE74FF4700270B52B4B2B4CC3F8C7
S31500001F80882000209C60FEF71BFAFFF763FE012005
S31500001F90FEF716FA2368A3F5806383F30A882448BC
S31500001FA0244A0021121A00F0A9FD2348234A244995
S31500001FB0121A00F0B1FD234D234B5B1B002B07DDEE
S31500001FC000249E1055F8043B01349847A642F9DCDC
S31500001FD0FFF72CFEFFF7B4FE0320FFF799FF00235F
S31500001FE04FF6FF70194903F1080201330C2B21F853
S31500001FF01200F8D100240320FFF75AFF0320FFF751
S3150000200087FF134B03205C609C60DC601C61FFF75C
S315000020104FFF0220FEF7D4F9FFF7F8FE2046BDE891
S31500002020704000F017B800BF00ED00E000000000AF
S3150000203088010020440600200000002068010020DE
S315000020400C4B00006001002064010020000D0840D8
S3150000205000000E40704700BF42F210338A899A4250
S315000020607AD170B52DED028B0B69B7EE087A1A7826
S31500002070DFED3C4A07EE902AF8EEE77A67EE877ABC
S31500002080B7EE005A87EEA47AC5EE077AC0ED0C7A51
S315000020905A789B7807EE902ADFED335A07EE103A0E
S315000020A0F8EE677AB8EEC77A67EEA57A9FED2F6AE3
S315000020B077EE877ADFED2E6A67EE867A87EEA67A66
S315000020C0B5EEC07AF1EE10FA04464FF0000580ED49
S315000020D00D7A44D9B1EE408ADFED267A0026C8EEA5
S315000020E0277A254B80ED000A4361067617EE900AA3
S315000020F000F0D4FB41EC100B00F01EFD002053EC69
S31500002100102B1E4900F06AFA00F0A8FCDFED1C7ADD
S31500002110C8EE277AA060256117EE900AE561256270
S315000021206562A562E562A68100F0B8FB41EC100B82
S3150000213000F002FD002053EC102B104900F04EFA7F
S3150000214000F08CFC606030460E4BA563E5632364AB
S315000021506564BDEC028B70BD6FF01F0070476FF0B9
S315000021602000F6E700007F43000080438096984AEF
S3150000217000FF7F47000096430000C8420000F03F82
S31500002180000020420000C843FFF766BFFFFFFFFFC5
S3150000219038B52DED068B81ED000A037E0D46FF2B2B
S315000021A0044690ED059A18D00133DBB20F2B037667
S315000021B013D800230021C84A80ED040AA18101201A
S315000021C085ED019ABDEC068B2B61EB60AB606A6115
S315000021D0A363E3636364226438BD94ED047A94EDEB
S315000021E0026A70EE477A67EE867A77EE877ADFEDD7
S315000021F0BB6A30EE677AB4EEE67AF1EE10FA00F3D7
S31500002200FC809FEDB76AB4EEC67AF1EE10FA44BFD1
S3150000221070EE267A30EE677ADFEDB26AB4EEE67AD1
S31500002220F1EE10FAC4ED047A00F3EC80DFEDAE7A3D
S31500002230B4EEE77AF1EE10FA00F1E480A389002B00
S3150000224040F03581DFEDA97AB4EEE70AF1EE10FA37
S3150000225007D5DFEDA77AB4EEE70AF1EE10FA00F340
S315000022601681F7EE007A87EE897A87EE808A38EE55
S31500002270478AB5EEC08AF1EE10FA206B48BF9FED93
S315000022809D8A00F00BFBD4ED0D7A68EE277A41ECBF
S315000022901A0B17EE900A00F001FBB0EE4A1AF0EEA8
S315000022A06A1A41EC100B00F097FC002251EC100B5F
S315000022B0914B01F0ADFE00F0D1FBDFED907A08EE18
S315000022C0100AB4EEE78AF1EE10FA00F1BB8000F0D6
S315000022D0E5FA9FED8B7A41EC100B68EE078A9FEDCD
S315000022E0781B00F079FC78A3D3E9002351EC100B9E
S315000022F001F08EFE00F0B2FBD4ED075AD4ED017A60
S31500002300DFED803A94ED005A38EEE57A9FED7E4A8D
S3150000231027EE277A25EE235AF1EE004A94ED0A6A53
S31500002320C5EE047A37EE257A67EEA47A37EE466A6A
S31500002330F4EEC67AF1EE10FA06EE900A40F18980C4
S3150000234094ED0B6A77EE657A77EE867AC4ED0B7AB2
S3150000235077EE677A9FED6D5A9FED6D6A67EE857A27
S31500002360F4EEC67AF1EE10FA5CD59FED6A5AF0EEFD
S31500002370467A37EE456A84ED0B6AD4ED0E3A94ED53
S315000023800F4AD4ED114A94ED105A84ED077AB5EE52
S31500002390006A38EEC47A38EE638A76EEE46A77EE3F
S315000023A0C57A28EE068A27EE067A66EE866A67EE14
S315000023B0867A38EE238A37EE047A76EEA46A77EECA
S315000023C0857A626A236A84ED0E8AC4ED085A84ED22
S315000023D00F7AC4ED116AC4ED107AA262636200201E
S315000023E085ED048A85ED019ABDEC068B85ED037AB1
S315000023F0C5ED026AC5ED057A38BD70EE667A30EE37
S31500002400677A09E7DFED416A94ED007AC6EE877ACE
S31500002410FCEEE77A17EE903A9BB2A381002B7FF48D
S3150000242020AF0FE79FED3C6AF4EEC67AF1EE10FAA4
S31500002430A3DD9FED3A6A37EE466AF0EE457A84ED03
S315000024400B6A9AE7DFED368A9FED210BB0EE678ABD
S3150000245045E7F1EE677AF4EEC67AF1EE10FA11DD91
S31500002460F7EE007AF4EEE75AF1EE10FA22DD94ED7B
S315000024700B6A27EE066AC6EE257AC4ED0B7A77EE6E
S31500002480677A67E7D4ED0B7A77EE677A62E7B4EEA0
S31500002490C90AF1EE10FA70EE497A44BF9FED217A2F
S315000024A067EE877A39EE279A84ED059AD9E6013BDD
S315000024B09BB2B2E70023F0EE477AE3624AE700BF39
S315000024C0000000000000D03F0000006066660A4081
S315000024D000000060EF44813F0000C84300504348BD
S315000024E0005043C800409C4600409CC60024F44966
S315000024F000401C4600000000000024407B270A3CE8
S31500002500D7A3F03F9A99993E000070420000964387
S315000025100000C843ABAAAA3F00409C4555558541DB
S315000025206EDD813C7221153638B52DED028B128891
S315000025301D4652BA4B8992B293420446487809899D
S3150000254004D291420ED89FED208A01E09FED1F8AAA
S315000025502946B0EE480ABDEC028B2046BDE838405D
S31500002560FFF716BE07EE900AD31AF8EEE76A9FED5C
S31500002570186A07EE903A891A07EE101A66EE866A0E
S31500002580F8EEE77AB8EEC77A66EEA77A87EE878A1C
S3150000259018EE100A00F082F909A3D3E9002300F02F
S315000025A053FA0028CFD1DFED097AB4EE678AF1EE4F
S315000025B010FA48BFB0EE678ACAE700BFAFF30080E3
S315000025C0000000A2941A6D42A5D468530000C842C8
S315000025D000007A4481F0004102E000BF83F000432E
S315000025E030B54FEA41044FEA430594EA050F08BFA8
S315000025F090EA020F1FBF54EA000C55EA020C7FEA6C
S31500002600645C7FEA655C00F0E2804FEA5454D4EBE8
S315000026105555B8BF6D420CDD2C4480EA020281EAB2
S31500002620030382EA000083EA010180EA020281EAEA
S315000026300303362D88BF30BD11F0004F4FEA01313C
S315000026404FF4801C4CEA113102D0404261EB41014B
S3150000265013F0004F4FEA03334CEA133302D05242D1
S3150000266063EB430394EA050F00F0A780A4F101048D
S31500002670D5F1200E0DDB02FA0EFC22FA05F28018C7
S3150000268041F1000103FA0EF2801843FA05F35941AD
S315000026900EE0A5F120050EF1200E012A03FA0EFC2C
S315000026A028BF4CF0020C43FA05F3C01851EBE37156
S315000026B001F0004507D54FF0000EDCF1000C7EEB73
S315000026C000006EEB0101B1F5801F1BD3B1F5001FB1
S315000026D00CD349085FEA30004FEA3C0C04F10104D0
S315000026E04FEA445212F5800F80F09A80BCF1004FF9
S315000026F008BF5FEA500C50F1000041EB045141EA7B
S31500002700050130BD5FEA4C0C404141EB0101013C43
S3150000271028BFB1F5801FE9D291F0000F04BF014632
S315000027200020B1FA81F308BF2033A3F10B03B3F104
S3150000273020020CDA0C3208DD02F1140CC2F10C0294
S3150000274001FA0CF021FA02F10CE002F11402D8BFF2
S31500002750C2F1200C01FA02F120FA0CFCDCBF41EABE
S315000027600C019040E41AA2BF01EB0451294330BD8D
S315000027706FEA04041F3C1CDA0C340EDC04F114046A
S31500002780C4F1200220FA04F001FA02F340EA030041
S3150000279021FA04F345EA030130BDC4F10C04C4F187
S315000027A0200220FA02F001FA04F340EA0300294667
S315000027B030BD21FA04F0294630BD94F0000F83F4B1
S315000027C0801306BF81F480110134013D4EE77FEA94
S315000027D0645C18BF7FEA655C29D094EA050F08BFE0
S315000027E090EA020F05D054EA000C04BF19461046C1
S315000027F030BD91EA030F1EBF0021002030BD5FEA05
S31500002800545C05D14000494128BF41F0004130BD2C
S3150000281014F580043CBF01F5801130BD01F0004580
S3150000282045F0FE4141F470014FF0000030BD7FEAF3
S31500002830645C1ABF194610467FEA655C1CBF0B46EE
S31500002840024650EA013406BF52EA033591EA030F05
S3150000285041F4002130BD00BF90F0000F04BF0021FD
S31500002860704730B54FF4806404F132044FF0000530
S315000028704FF0000150E700BF90F0000F04BF0021A9
S31500002880704730B54FF4806404F1320410F000450F
S3150000289048BF40424FF000013EE700BF42004FEA0A
S315000028A0E2014FEA31014FEA02701FBF12F07F4387
S315000028B093F07F4F81F06051704732F07F4208BF3E
S315000028C0704793F07F4F04BF41F40021704730B545
S315000028D04FF4607401F0004521F000411CE700BF91
S315000028E050EA010208BF704730B54FF000050AE014
S315000028F050EA010208BF704730B511F0004502D515
S31500002900404261EB41014FF4806404F132045FEA16
S31500002910915C3FF4D8AE4FF003025FEADC0C18BFBF
S3150000292003325FEADC0C18BF033202EBDC02C2F1B1
S31500002930200300FA03FC20FA02F001FA03FE40EA43
S315000029400E0021FA02F11444BDE600BF4FF0FF3C31
S3150000295006E000BF4FF0010C02E000BF4FF0010C93
S315000029604DF804CD4FEA410C7FEA6C5C4FEA430C0C
S3150000297018BF7FEA6C5C1BD001B050EA410C0CBF5B
S3150000298052EA430C91EA030F02BF90EA020F0020BD
S31500002990704710F1000F91EA030F58BF994208BF24
S315000029A090422CBFD8176FEAE37040F001007047E1
S315000029B04FEA410C7FEA6C5C02D150EA013C07D138
S315000029C04FEA430C7FEA6C5CD6D152EA033CD3D083
S315000029D05DF8040B704700BF8446104662468C467D
S315000029E01946634600E000BF01B5FFF7B7FF0028B0
S315000029F048BF10F1000F01BD4DF808EDFFF7F4FFD9
S31500002A000CBF012000205DF808FB00BF4DF808ED63
S31500002A10FFF7EAFF34BF012000205DF808FB00BF86
S31500002A204DF808EDFFF7E0FF94BF012000205DF8A8
S31500002A3008FB00BF4DF808EDFFF7CEFF94BF01205D
S31500002A4000205DF808FB00BF4DF808EDFFF7C4FF56
S31500002A5034BF012000205DF808FB00BF4FEA4102A9
S31500002A60B2F1E04324BFB3F5001CDCF1FE5C0DD9E6
S31500002A7001F0004C4FEAC0024CEA5070B2F1004F30
S31500002A8040EB830008BF20F00100704711F0804F33
S31500002A9021D113F13872BCBF01F00040704741F4F8
S31500002AA080114FEA5252C2F11802C2F1200C10FAFC
S31500002AB00CF320FA02F018BF40F001004FEAC123E0
S31500002AC04FEAD32303FA0CFC40EA0C0023FA02F384
S31500002AD04FEA4303CCE77FEA625307D150EA01335A
S31500002AE01EBF4FF0FE4040F44000704701F000402A
S31500002AF040F0FE4040F40000704700BF0244034629
S31500002B00934200D1704703F8011BF9E7014B18689F
S31500002B10704700BF100100200A44431E914200D1B5
S31500002B20704710B511F8014B914203F8014FF9D1E6
S31500002B3010BDFFFFFFFFFFFF08B52DED048BB0EEC4
S31500002B40408AF0EE608A00F0CFF8B0EE409AF0EEE0
S31500002B50609AB0EE480AF0EE680A00F0B5F878B16F
S31500002B6019A3D3E9002351EC180BFFF76DFF70B9D9
S31500002B7017A3D3E9002351EC180BFFF747FF98B9C9
S31500002B80B0EE490AF0EE690ABDEC048B08BD9FED74
S31500002B900A9BFFF7BBFF2223B0EE490AF0EE690A53
S31500002BA00360BDEC048B08BDFFF7B0FF22239FED49
S31500002BB0049B0360E4E700BF000000000000F07F14
S31500002BC00000000000000000EF39FAFE422E8640A9
S31500002BD051302DD5104987C0F8B555EC114B2DED68
S31500002BE0028B57EC106B00F04FFA22462B4620461C
S31500002BF02946B0EE408AF0EE608A01F01BFC78B9F7
S31500002C000022002330463946FFF7F6FEF0B10022D7
S31500002C10002320462946FFF7EFFE40B19FED288BA3
S31500002C20B0EE480AF0EE680ABDEC028BF8BD45EC42
S31500002C30104B00F049F80028F2D00022002320466D
S31500002C402946FFF7E3FE0028EAD02EE0B0EE480A58
S31500002C50F0EE680A00F038F8A0B10022002351EC2B
S31500002C60180BFFF7C9FE0028DAD047EC106B00F00E
S31500002C702BF80028D4D045EC104B00F025F800289E
S31500002C80CED012E047EC106B00F01EF80028E4D01E
S31500002C9045EC104B00F018F80028DED053EC182B4A
S31500002CA051EC180B01F0C6FB20B9FFF72FFF2223CA
S31500002CB00360B5E7FFF72AFF21230360B0E700BFF3
S31500002CC0000000000000F03F82B005488DED000BCB
S31500002CD0019B23F000431844C00F02B0704700BFA9
S31500002CE000001080FFFFFFFF2DE9F04755EC104B69
S31500002CF025F00042D84986B0EE0F8A420DD9D74951
S31500002D008A4271D9C5F313032246234340F0538107
S31500002D10002E66D09FEDB80B63E0D14B9A4200F2CD
S31500002D202F81D04B9A4240F2148122462B462046F0
S31500002D30294601F06DF906460F46B1A3D3E90023F3
S31500002D4001F066F9B0A3D3E90023FFF747FC32464A
S31500002D503B4601F05DF9AEA3D3E90023FFF740FC43
S31500002D6032463B4601F054F9ABA3D3E90023FFF703
S31500002D7035FC32463B4601F04BF9A9A3D3E90023C3
S31500002D80FFF72EFC32463B4601F042F902460B465F
S31500002D9020462946FFF722FCCDE90201DDE902893A
S31500002DA02046294642464B4601F032F906460F4672
S31500002DB000224FF0804340464946FFF70FFC02468B
S31500002DC00B463046394601F04DFA22462B46FFF7B0
S31500002DD005FC02460B460020A349FFF7FFFB41EC2A
S31500002DE0100B06B0BDE8F0878FA3D3E90023204679
S31500002DF02946FFF729FE0746002840F0E6802046D0
S31500002E0029468BA3D3E90023FFF700FE002840F0F4
S31500002E103581964B2046294603EBC60686A3D3E9A1
S31500002E20002301F0F5F8D6E90023FFF7D9FB01F0FE
S31500002E3017FB8246FFF720FD06460F4680A3D3E91F
S31500002E40002301F0E5F802460B4620462946FFF727
S31500002E50C5FB80468946304639467BA3D3E9002325
S31500002E6001F0D6F8CDE90001DDE9002340464946E8
S31500002E70FFF7B4FB02460B4604460D4601F0C8F8C0
S31500002E8006460F465EA3D3E9002301F0C1F85EA310
S31500002E90D3E90023FFF7A2FB32463B4601F0B8F820
S31500002EA05BA3D3E90023FFF79BFB32463B4601F0C9
S31500002EB0AFF859A3D3E90023FFF790FB32463B4610
S31500002EC001F0A6F856A3D3E90023FFF789FB3246A3
S31500002ED03B4601F09DF802460B4620462946FFF781
S31500002EE07DFB06460F462046294632463B46CDE93F
S31500002EF0026701F08DF8CDE90401BAF1000F3FF445
S31500002F004DAF32463B4600204FF08041FFF766FB4F
S31500002F1002460B46DDE9040101F0A4F902460B4620
S31500002F20DDE90001FFF75AFB42464B46FFF756FB29
S31500002F3002460B4600204C49FFF750FB6FF47F72A8
S31500002F40924548DB01EB0A5141EC100B06B0BDE897
S31500002F50F0873FA3D3E9002320462946FFF740FB2D
S31500002F600022414BFFF770FD00283FF4DEAE002241
S31500002F703D4B20462946FFF733FB41EC100B30E76B
S31500002F803B4B9A423FF645AF3A4B20462946F40062
S31500002F9003EBC60386F0010AD3E90023FFF71EFB05
S31500002FA0354B804689462344AAEB060A93ED007BFF
S31500002FB08DED007B58E72B4620462946FFF710FB90
S31500002FC041EC100B06B0BDE8F087002006B0BDE866
S31500002FD0F04700F025BF0AF57A7A00224FF0B87361
S31500002FE001EB0A5101F014F841EC100B06B0BDE8F4
S31500002FF0F08700BFAFF30080000000000000000073
S31500003000D0A4BE726937663EF16BD2C541BDBB3EE8
S315000030102CDE25AF6A56113F93BDBE166CC1663FC6
S315000030203E5555555555C53FEF39FAFE422E864059
S3150000303051302DD5104987C0FE822B654715F73FC5
S315000030400000E0FE422EE63F763C7935EF39EA3D58
S315000030509C7500883CE4377E412E8640FFFFEF7F5B
S31500003060422ED63FFFFFEF3D0000F03FE84A00004A
S31500003070B1A2F03FD84A0000C84A0000384606B060
S31500003080BDE8F04700F0C4BE2DE9F04F55EC114BFA
S3150000309025F0004393B053EA040057EC106B12D1AD
S315000030A0B31987F4002284495241984291411DD2B6
S315000030B022462B4630463946FFF792FA41EC100B72
S315000030C013B0BDE8F08F7D4827F0004AB946314677
S315000030D0824510D97A4A4A440A43E9D1231985F42C
S315000030E00021754849419A428841E1D39FED700B12
S315000030F013B0BDE8F08FA8462246504601D1002EF7
S31500003100D6D1DFF8B8C16345E4D801D1002AE1D1B0
S31500003110B9F1000F20DB002A5DD1DFF8A0C16345BD
S315000031200BD09346674A934240F0C784B8F1000F2C
S31500003130C0F20C8547EC106BC2E7614B53440B435E
S31500003140D4D0614B9A4540F2CA84B8F1000FC0F260
S315000031504F8545EC104BB3E7DFF874C163454BD997
S31500003160002A40F0E483554A9342E6D04FF0020B22
S3150000317004910290009347EC106B00F087FD0499D0
S31500003180009B029800295ED04FEAD972013A52EAB2
S315000031900B0100F08A800BF1FF3B5BEA020B00F0AB
S315000031A0A1839FED437B8DED047BB3F1844F40F209
S315000031B09180464A9342444B40F222849A4500F25B
S315000031C0CF84B8F1000FC0F2CF84002013B0BDE861
S315000031D0F04F00F01DBE4FF0000B049102900093DB
S315000031E047EC106B00F052FD0499009B029851B316
S315000031F04FEAD972013ACEE7DFF8CCC063450FD962
S315000032004FEA235CACF2FF3CBCF1140F40F37E8422
S31500003210CCF1340C22FA0CFE0EFA0CFC94453CD090
S31500003220002A40F08783B8F1804F00F0858404912E
S315000032300290009347EC106B00F028FD0499009B68
S31500003240029891BB8B4629F040421E498A4202D021
S31500003250BAF1000F98D1B8F1000F07DA002019492A
S3150000326053EC102B00F0FEFF41EC100BB9F1000FF0
S31500003270BFF626AF124B534453EA0B0340F09C842F
S3150000328053EC102B10461946FFF7A8F902460B46D9
S3150000329000F0E8FF41EC100B12E7002A00F048842A
S315000032A00EF0010ECEF1020B97E732463B46E9E7F8
S315000032B0000000000000F03F0000F0FF0000F07F7B
S315000032C0000010C00000F03FFFFFEF3F0000F0439A
S315000032D0FFFF3F43D84B002209EA030353B9D74BFC
S315000032E051EC100B00F094FE6FF0340241EC100B21
S315000032F010EE900A0315C0F31300D14EA3F2FF336C
S3150000330006439A18CF4B98420B9240F32C83CE4B30
S31500003310984240F32F840132A6F5801600270B92BF
S315000033209FEDAF7B8DED087B9FEDAF7B8DED067B33
S315000033309FEDAB7B8DED107B53EC102B9246B34685
S3150000334031465046DDE90623FFF748F980468946AF
S31500003350504631467610DDE90623CDE90CABFFF782
S315000033603FF902460B460020B54946F0005600F0EC
S3150000337079FF8C4683464946634640465A46CDE920
S315000033800EBC00F045FE0A46014606F50023002065
S31500003390CDE90012CDE9021200210646024600914F
S315000033A0D919DDE900AB0F460B465046594600F0E9
S315000033B02FFE02460B4640464946FFF70FF9804668
S315000033C0894630463946DDE90623FFF707F9024606
S315000033D00B46DDE90C01FFF701F952465B4600F0AA
S315000033E017FE02460B4640464946FFF7F7F8DDE969
S315000033F00E2300F00DFEDDE90267CDE90601324637
S315000034003B463046394600F003FE06460F4678A393
S31500003410D3E9002300F0FCFD77A3D3E90023FFF7EF
S31500003420DFF832463B4600F0F3FD75A3D3E90023EF
S31500003430FFF7D6F832463B4600F0EAFD72A3D3E921
S315000034400023FFF7CDF832463B4600F0E1FD70A3BE
S31500003450D3E90023FFF7C4F832463B4600F0D8FD17
S315000034606DA3D3E90023FFF7BBF8804689463246B1
S315000034703B463046394600F0CBFD02460B464046F9
S31500003480494600F0C5FD524606460F465B46DDE955
S315000034900201FFF7A5F8DDE9062300F0B9FD324683
S315000034A03B460026FFF79CF85246804689465B4617
S315000034B05046594600F0ACFD02460B46CDE90C23BA
S315000034C00022624BFFF78CF842464B46FFF788F81E
S315000034D00F46324650463B46594600F099FD0022BB
S315000034E082468B46594B30463946FFF777F8DDE979
S315000034F00C23FFF773F802460B4640464946FFF792
S315000035006DF8DDE9022300F083FD804689463246E8
S315000035103B460026DDE9060100F07AFD02460B4631
S3150000352040464946FFF75CF8804689465046424683
S3150000353059464B46FFF754F80F46304638A3D3E9B1
S31500003540002300F065FD52465B4682468B463046B8
S315000035503946FFF743F802460B4640464946FFF711
S315000035603DF831A3D3E9002300F052FD02460B4695
S315000035703046394616461F462DA3D3E9002300F0F0
S3150000358047FD02460B4630463946FFF729F8DDE986
S315000035901023FFF725F806460F460B98FFF76CF940
S315000035A03246804689463B4650465946CDE902ABEF
S315000035B0FFF716F8DDE90823FFF712F842464B46F7
S315000035C0FFF70EF8002042464B4682468B46FFF731
S315000035D005F8DDE90823FFF701F8DDE9022337E006
S315000035E00000000000000000000000000000F03FA6
S315000035F0EF4E454A287ECA3F65DBC9934A86CD3FD2
S3150000360001411DA96074D13F4D268F515555D53FB7
S31500003610FFAB6FDBB66DDB3F033333333333E33F4F
S31500003620000000E009C7EE3FFD033ADC09C7EE3FA4
S31500003630F5015B14E02F3EBE0000F07F0000404322
S315000036400000F03F8E98030079B60B00000008409A
S31500003650FEF7C4FF02460B4630463946FEF7BEFF6C
S315000036600023CDE900450093DDE90089CDE902019B
S315000036704246204629464B46FEF7B0FF52465B4679
S3150000368000F0C6FC06460F4622462B46DDE902013F
S3150000369000F0BEFC02460B4630463946FEF7A0FF58
S315000036A004460D4642464B4650465946CDE902452C
S315000036B000F0AEFC06460F462046294632463B46FB
S315000036C0FEF78EFFC84B04460D469942884640F3E6
S315000036D00E81C64B0B44034340F05C82AAA3D3E998
S315000036E00023DDE90201FEF77BFF02460B4620467A
S315000036F0294614461D4632463B46FEF76FFF0246F4
S315000037000B4620462946FFF79FF9002840F04282E3
S315000037104FF400734344B64CB8F1000F4FF000006D
S31500003720C3F30A52C3F3130AA2F2FF324AF4801A11
S3150000373044FA02F4C2F1140204EA03014AFA02FA54
S31500003740024630460B46B8BFCAF1000A3946FEF7B4
S3150000375045FF02460B4606460F464FEA0A5BDDE981
S315000037600201FEF73DFF0D460024294688A3D3E952
S315000037700023204600F04CFC3246804689463B46F4
S3150000378020462946FEF72AFF02460B46DDE90201DE
S31500003790FEF724FF80A3D3E9002300F039FC02469C
S315000037A00B462046294614461D467DA3D3E9002331
S315000037B000F02EFC02460B4620462946FEF710FF77
S315000037C006460F464046324649463B46FEF708FF48
S315000037D0424604460D464B46FEF700FF02460B46A0
S315000037E030463946FEF7FAFE2246804689462B4683
S315000037F02046294600F00CFC06460F466AA3D3E98C
S31500003800002300F005FC6AA3D3E90023FEF7E6FED9
S3150000381032463B4600F0FCFB67A3D3E90023FEF7E4
S31500003820DFFE32463B4600F0F3FB65A3D3E90023F7
S31500003830FEF7D4FE32463B4600F0EAFB62A3D3E92C
S315000038400023FEF7CDFE32463B4600F0E1FB024682
S315000038500B4620462946FEF7C1FE06460F46204681
S31500003860324629463B4600F0D3FB02460B4630461D
S31500003870394616461F4600224FF08043FEF7AEFE3D
S3150000388002460B463046394600F0ECFC42460646F8
S315000038900F464B462046294600F0BAFB42464B46A9
S315000038A0FEF79EFE02460B4630463946FEF796FE6A
S315000038B022462B46FEF792FE02460B4600204D4955
S315000038C0FEF78CFE0B4659440246B1F5801FC0F246
S315000038D06B811046DDE9042300F09AFB41EC100BE6
S315000038E0FFF7EEBB9FED3A7B8DED047B5DE421F0A7
S315000038F00043DFF808C1634540F2FF803E4B0B44AE
S3150000390003430AD132463B46FEF768FEDDE9022351
S31500003910FFF790F800283FF4FBAE00220023DDE914
S315000039200401FFF773F8003818BF01204EE44FF08A
S31500003930020B52E447EC106B009100F0A7F90099D6
S3150000394000297FF4B2AC29F040492A4B994503D0AF
S31500003950BAF1000F7FF4A9ACB8F1000FC0F259819B
S315000039604FF0000B86E49FED1C7B00278DED087B56
S315000039709FED1B7B8DED067B9DED087B8DED107B12
S31500003980DAE400BFAFF30080FE822B654715973C53
S3150000399000000000432EE63FEF39FAFE422EE63FD6
S315000039A0396CA80C615C20BED0A4BE726937663E35
S315000039B0F16BD2C541BDBB3E2CDE25AF6A56113F29
S315000039C093BDBE166CC1663F3E5555555555C53F10
S315000039D0000000000000F0BF000000000000000032
S315000039E0000000000000F03FFFFF8F40000070BFA6
S315000039F00000F0FF0000F03F00346F3FFFCB904027
S31500003A009A45C0F0E7809E4B00229A4500F2F4806A
S31500003A109B4B51EC100BFEF7E1FD06460F4688A3C3
S31500003A20D3E9002300F0F4FA82468B463046394645
S31500003A3085A3D3E9002300F0EBFA0022914BCDE9F0
S31500003A4000013046394600F0E3FA02460B4680A1F3
S31500003A50D1E90001FEF7C2FD32463B4600F0D8FA36
S31500003A6002460B4600208849FEF7B8FD8046894687
S31500003A7032463B463046394600F0CAFA02460B4605
S31500003A804046494600F0C4FA73A3D3E9002300F088
S31500003A90BFFA02460B46DDE90001FEF79FFD06462A
S31500003AA00F465046594632463B46FEF799FD0020E2
S31500003AB052465B4682468B46CAE5B8F1804F3BD0FC
S31500003AC0714A90457FF454ABB9F1000FFFF650AB45
S31500003AD047EC106B13B0BDE8F04F00F0A9B9B8F190
S31500003AE0000F9FED5F0BBFF6EBAA05F1004300EE5A
S31500003AF0104A00EE903AFFF7E3BA634A934200F2A7
S31500003B009480DDE90023934692462DE6002A7FF451
S31500003B1011AFCCF1140C43FA0CFE0EFA0CFC9C45CA
S31500003B207FF4FFAA0EF0010ECEF1020BFFF7FABAF0
S31500003B30B8F1804F7FF41AAB32463B4630463946E1
S31500003B4000F066FA41EC100BFFF7BABA00204C49B8
S31500003B5032463B4600F086FB41EC100BFFF7B0BA4D
S31500003B60B8F1000F7FF731AB002013B0BDE8F04F7E
S31500003B7000F056B99FED3C7B4FF480278DED087B16
S31500003B809FED3B7B8DED107B9FED3B7B8DED067BAB
S31500003B90FFF7D2BB00220023DDE90401FEF736FF62
S31500003BA0003818BF0120E0E7504643EC102B00F028
S31500003BB077F851EC100B8DE6BBF1010F7FF480AA6C
S31500003BC010EE901A10EE102A01F1004343EC102B70
S31500003BD0FFF776BA00220023DDE90401FEF716FF9F
S31500003BE0003818BF0120B8F1000FBFF6EFAABCE7F6
S31500003BF09FED1B0BFFF764BA0023DDE90401FEF716
S31500003C0005FF003818BF0120B8F1000FADDCFFF743
S31500003C10DDBA53EC102B0020194900F023FB4FF0BE
S31500003C20000B41EC100BFFF725BB1B154FF4801260
S31500003C30A3F2FE3342FA03F36CE500BFAFF3008054
S31500003C40000000604715F73F44DF5DF80BAE543EB9
S31500003C50555555555555D53FFE822B654715F73FAA
S31500003C6000000000000000000000004003B8E23F32
S31500003C7006D0CF43EBFD4C3E000000000000F83FAD
S31500003C800000F03F0000D03F0000E03F51EC100B79
S31500003C90024621F0004343EC102B7047FFFFFFFF65
S31500003CA070B555EC104BC5F30A522B46064672BB4F
S31500003CB025F00043234329D03B4B204629460022CA
S31500003CC000F0A6F9394B04460D469E4252DBC1F37D
S31500003CD00A520B46363A4CF250318E4223DC1644D9
S31500003CE040F2FE7296421EDC002E34DC16F1350FD1
S31500003CF038DB6FF31E5336360022204643EA06555C
S31500003D002B4B294600F084F941EC100B70BD40F2B4
S31500003D10FF718A42DFD1224620462946FEF760FC23
S31500003D2041EC100B70BD002D17A1D1E9000107DB96
S31500003D3015A3D3E9002300F06BF941EC100B70BD1D
S31500003D4013A1D1E9000110A3D3E9002300F060F923
S31500003D5041EC100BF3E76FF31E5343EA065545ECAF
S31500003D60104B70BD002D0CA1D1E9000102DA0CA1A7
S31500003D70D1E9000108A3D3E9002300F049F941EC99
S31500003D80100B70BDAFF300809C7500883CE4377E55
S31500003D909C7500883CE437FE59F3F8C21F6EA501F6
S31500003DA059F3F8C21F6EA58100005043B03CFFFFD7
S31500003DB00000903C10B52DED028BB0EE408AF0EE7F
S31500003DC0608A0446FEF7A2FE0460B0EE480AF0EEF2
S31500003DD0680ABDEC028B10BD00B553EC102B83B006
S31500003DE090B1104603F10041CDE900011046194695
S31500003DF0DDE9002300F00CF941EC100B222003B0A2
S31500003E005DF804EBFFF7D6BF10461946ECE700BF96
S31500003E109FED010BFFF7E0BF00000000000000105F
S31500003E209FED010BFFF7D8BF0000000000000070F7
S31500003E3073482DE9F84F55EC104BA84322462B4604
S31500003E4000F09E80002D21465EDD2C1500F0C88016
S31500003E50C3F31303E207A4F2FF3743F4801303D43A
S31500003E60CA0F490002EB43035B0000264A004FF0ED
S31500003E70160C03EBD173B6467F104FF400110EEB10
S31500003E800100D40F5200984203DC00EB010E1B1A0E
S31500003E900E44BCF1010C04EB43034FEA5101EED191
S31500003EA0654620244FF0004113E0904208D89E4515
S31500003EB006D1002800EB010C3DDB0023121A0D444D
S31500003EC0D00F013C4FEA510100EB43034FEA420297
S31500003ED035D09E450CEB0100E7DA002800EB010C1B
S31500003EE007DB9042F046A3EB0E030BD9013BC64617
S31500003EF0E4E7BCF1000FF4DB90420EF10108A3EBFE
S31500003F000E03F3D8C646D9E725F00040204335D046
S31500003F10002D5AD1CA0A153B4905002AFAD0D60205
S31500003F201C46084613465CD520254FF0FF32E84074
S31500003F30A41A03438CE7BCF1000FDDDABDE7134397
S31500003F4012D0DFF8C4A0DFF8C4B0DAE90001DBE97B
S31500003F500023DAE90089FEF741FB02460B4640469C
S31500003F604946FEF75DFDB8B96C08264944EAC672B3
S31500003F7001EB660101EB075343EC102BBDE8F88F0C
S31500003F802046294600F044F822462B46FEF728FB39
S31500003F9041EC100BBDE8F88FB5F1FF3FDAE90001FF
S31500003FA0DBE9002328D0FEF71BFB02460B46DAE9C5
S31500003FB0008940464946FEF729FDF8B1AB1C05F1DC
S31500003FC0020408BF01366408CFE720462946FEF7FB
S31500003FD005FB02460B4600F045F941EC100BCDE718
S31500003FE0104600215B000A460131DD02FAD5C1F117
S31500003FF0200500FA01F19AE70136B6E70135B3E785
S315000040000000F07F0000E03F004B0000F84A00008F
S3150000401070B54FF0FF0C4CF4E06C1CEA11541DBF58
S315000040201CEA135594EA0C0F95EA0C0F00F0DEF823
S315000040302C4481EA030621EA4C5123EA4C5350EA08
S31500004040013518BF52EA033541F4801143F4801359
S3150000405038D0A0FB02CE4FF00005E1FB02E506F0EA
S315000040600042E0FB03E54FF00006E1FB03569CF03F
S31500004070000F18BF4EF0010EA4F1FF04B6F5007F45
S3150000408064F5407404D25FEA4E0E6D4146EB0606B7
S3150000409042EAC62141EA55514FEAC52040EA5E5040
S315000040A04FEACE2EB4F1FD0C88BFBCF5E06F1ED8EA
S315000040B0BEF1004F08BF5FEA500E50F1000041EB21
S315000040C0045170BD06F0004646EA010140EA0200CE
S315000040D081EA0301B4EB5C04C2BFD4EB0C0541EAF0
S315000040E0045170BD41F480114FF0000E013C00F305
S315000040F0AB8014F1360FDEBF002001F0004170BD29
S31500004100C4F10004203C35DA0C341BDC04F1140441
S31500004110C4F1200500FA05F320FA04F001FA05F2CD
S3150000412040EA020001F0004221F0004110EBD3709A
S3150000413021FA04F642EB06015EEA430E08BF20EAC6
S31500004140D37070BDC4F10C04C4F1200500FA04F369
S3150000415020FA05F001FA04F240EA020001F00041FB
S3150000416010EBD37041F100015EEA430E08BF20EA6E
S31500004170D37070BDC4F1200500FA05F24EEA020EB6
S3150000418020FA04F301FA05F243EA020321FA04F0E5
S3150000419001F0004121FA04F220EA020000EBD3709C
S315000041A05EEA430E08BF20EAD37070BD94F0000F9C
S315000041B00FD101F00046400041EB010111F4801FD0
S315000041C008BF013CF7D041EA060195F0000F18BF81
S315000041D0704703F00046520043EB030313F4801FBD
S315000041E008BF013DF7D043EA0603704794EA0C0F77
S315000041F00CEA135518BF95EA0C0F0CD050EA41068D
S3150000420018BF52EA4306D1D181EA030101F0004109
S315000042104FF0000070BD50EA410606BF1046194631
S3150000422052EA430619D094EA0C0F02D150EA01363D
S3150000423013D195EA0C0F05D152EA03361CBF10467E
S3150000424019460AD181EA030101F0004141F0FE411D
S3150000425041F470014FF0000070BD41F0FE4141F4A1
S31500004260780170BD70B54FF0FF0C4CF4E06C1CEAA1
S3150000427011541DBF1CEA135594EA0C0F95EA0C0F56
S3150000428000F0A7F8A4EB050481EA030E52EA033511
S315000042904FEA013100F088804FEA03334FF0805532
S315000042A045EA131343EA12634FEA022245EA11155F
S315000042B045EA10654FEA00260EF000419D4208BF10
S315000042C0964244F1FD0404F5407402D25B084FEABD
S315000042D03202B61A65EB03055B084FEA32024FF469
S315000042E080104FF4002CB6EB020E75EB030E22BFC6
S315000042F0B61A754640EA0C005B084FEA3202B6EB86
S31500004300020E75EB030E22BFB61A754640EA5C0034
S315000043105B084FEA3202B6EB020E75EB030E22BFC4
S31500004320B61A754640EA9C005B084FEA3202B6EBC5
S31500004330020E75EB030E22BFB61A754640EADC0084
S3150000434055EA060E18D04FEA051545EA16754FEAE6
S3150000435006164FEAC30343EA52734FEAC2025FEA04
S315000043601C1CC0D111F4801F0BD141EA00014FF093
S3150000437000004FF0004CB6E711F4801F04BF014364
S315000043800020B4F1FD0C88BFBCF5E06F3FF6AFAE80
S31500004390B5EB030C04BFB6EB020C5FEA500C50F110
S315000043A0000041EB045170BD0EF0004E4EEA113193
S315000043B014EB5C04C2BFD4EB0C0541EA045170BD9A
S315000043C041F480114FF0000E013C90E645EA060EDE
S315000043D08DE60CEA135594EA0C0F08BF95EA0C0F0C
S315000043E03FF43BAF94EA0C0F0AD150EA01347FF454
S315000043F034AF95EA0C0F7FF425AF104619462CE72B
S3150000440095EA0C0F06D152EA03353FF4FDAE10468D
S31500004410194622E750EA410618BF52EA43067FF4DE
S31500004420C5AE50EA41047FF40DAF52EA43057FF46E
S31500004430EBAE12E74FEA410C7FEA6C5C02D150EA20
S31500004440013C0AD14FEA430C7FEA6C5C02D152EA86
S31500004450033C02D14FF0000070474FF00100704757
S315000044604FEA410212F5001215D211D56FF4787396
S31500004470B3EB625212D94FEAC12343F0004343EA39
S31500004480505311F0004F23FA02F018BF4042704714
S315000044904FF00000704750EA013005D111F000409E
S315000044A008BF6FF0004070474FF00000704700BF34
S315000044B04275696C7420776974682052656E6573FD
S315000044C0617320416476616E63656420466C65782D
S315000044D069626C6520536F667477617265205061FE
S315000044E0636B6167652076657273696F6E20352E22
S315000044F0342E3000352E342E300000000000040526
S31500004500F8B500BFF8BC08BC9E467047F8B500BFBA
S31500004510F8BC08BC9E4670474653505F535543430C
S31500004520455353203D3D2065727200002E2E2F7399
S3150000453072632F68616C5F656E7472792E6300001A
S3150000454066616C736500FFFF675F7A6D6F64347830
S3150000455078785F73656E736F72305F717569636BC0
S315000045605F67657474696E675F6961715F317374E3
S315000045705F67656E5F636F6E74696E756F75735F87
S315000045806D6F64655F6461746100FFFF675F7A6DDC
S315000045906F64347878785F73656E736F72305F71AD
S315000045A07569636B5F736574757000FF675F636F32
S315000045B06D6D735F6932635F627573305F717569C4
S315000045C0636B5F736574757000FFFFFFC8010020A1
S315000045D0D8450000884A000000000000A0860100BF
S315000045E033000000010C000102030000000000007F
S315000045F000000000B10E00000000000000460000B0
S315000046000101031C1C0000000802002014460000E3
S31500004610A84A0000040C040103000000ED0C000091
S3150000462000000000000000001802002034460000D0
S31500004630244A00004C460000084600000000000026
S3150000464014000020810200009D02000018030020D3
S3150000465058460000684A0000FFFFFFFF00000020E8
S315000046606C46000018020020290C00000000000023
S315000046700000000032000000010000000000000001
S315000046800000000000000000B10E00000000000065
S315000046900000000050000000A046000000000000DE
S315000046A00080000000000000008000000100000003
S315000046B000800000020000000080000003000000EF
S315000046C0104000000400000010400000050000003B
S315000046D01040000006000000104000000800000026
S315000046E0008000000E000000008000000F000000A7
S315000046F000000000040100000000000005010000A9
S31500004700000C010008010000000000000B01000081
S31500004710000C01120C010000000C01120D0100003A
S31500004720000C01120E010000000000000F01000045
S31500004730000001050202000000000105030200005E
S31500004740000001050402000000000105050200004A
S315000047500000000006020000000000000702000042
S315000047600000000008020000450C00000A020000DC
S31500004770000C01170B020000000C01170E020000CE
S31500004780000C010000030000450C000003030000BC
S31500004790450C000006030000450C0000070300005E
S315000047A0450C00000B030000400C0107000400004C
S315000047B0400C010701040000004000000204000054
S315000047C01040000003040000104000000404000034
S315000047D0000C011705040000000C01170604000078
S315000047E0000C011307040000450C0000090400003A
S315000047F0000C01060A040000000C01060B04000070
S31500004800000C01060C040000000C01060D0400005B
S31500004810000000000E040000000000000F0400006D
S31500004820000C010500050000000C01050105000053
S31500004830000C010502050000000000000305000051
S31500004840000000000505000000000000060500004D
S31500004850000C010508050000400C01070B050000CF
S31500004860400C01070C050000040C000001060000C6
S31500004870040C000002060000040C00000306000001
S31500004880040C0000050600000000000008060000F9
S31500004890040C000009060000040C00000A060000D3
S315000048A0000000000B060000400C01050D0600008C
S315000048B0400C01050E060000000C01130F06000057
S315000048C0000C011700070000000C0117010700008B
S315000048D0000C011702070000000C01170307000077
S315000048E0000C011704070000000C01170507000063
S315000048F0000C010506070000000C01050707000073
S315000049000000000008070000004000000308000047
S315000049100040000004080000000C0113080A000013
S3150000492073007400750076000500000000000000AA
S315000049300000000000000000000000000000000071
S315000049400000000000000000000000000000000061
S315000049500000000000000000000000000000000051
S315000049600000000000000000000000000000000041
S315000049700000000000000000000000000000000031
S315000049800000000000000000000000000000000021
S315000049900000000000000000000000000000000011
S315000049A00000000000000000000000000000000001
S315000049B000000000000000000000000000000000F1
S315000049C000000000000000000000000000000000E1
S315000049D000000000000000000000000000000000D1
S315000049E03D040000E50300007D04000059040000BA
S315000049F0E9030000F5030000F10300006104000074
S31500004A0065040000690400006D04000071040000E4
S31500004A10550400005D040000ED030000750400006D
S31500004A207904000075070000210600001106000049
S31500004A30ED0B0000FD060000810400008904000063
S31500004A409104000099040000A1040000A9040000DC
S31500004A50B1040000B9040000C1040000C90400004C
S31500004A604907000045060000710D0000990D000081
S31500004A70A90D0000AD0D0000B10D00000000000002
S31500004A80020403040404FFFF191400001D120000B1
S31500004A90ED1100008D140000691000007510000073
S31500004AA085100000BD1400006D1A0000ED1A00000C
S31500004AB0311B0000611B00006D1B0000010002009D
S31500004AC008001000FFFFFFFF763C7935EF39EA3D1D
S31500004AD0763C7935EF39EABD0000E0FE422EE63F2E
S31500004AE00000E0FE422EE6BF000000000000E03FAE
S31500004AF0000000000000E0BF59F3F8C21F6EA501D8
S31100004B00000000000000F03F0000000074
S31500004B0CFFFFFFFF00000000CC4500000000000086
S31500004B1C000000000100000000000040102300000F
S31500004B2CE04900004000002088020020F00200202E
S31500004B3CA8020020900200200000000000000000E7
S31500004B4C800000004002000004010020500200001A
S31500004B5C0601002060020000080100206804000025
S31500004B6C0A0100209704000000000000000000006D
S31500004B7CC000000040020000F800002050040000B5
S31500004B8CFA00002060010000FE000020680400000E
S31500004B9CFF00002099020000000000000600000043
S31500004BAC8000000040040000D000002050060000E9
S31500004BBCD400002060020000DA000020681C00000F
S31500004BCCDC000020A9020000000000000600000026
S31500004BDC0050FDA800CD019A0334230300000A41BE
S31500004BEC0A410041004100490049005100090049B1
S31500004BFC0040004000408040FDA820042004030033
S31500004C0C0080080000500028C3E30000804000002C
S31500004C1C14010020000000000C0500207405002083
S31500004C2CDC05002000000000000000000000000071
S31500004C3C0000000000000000000000000000000062
S31500004C4C0000000000000000000000000000000052
S31500004C5C0000000000000000000000000000000042
S30D00004C6C2D0200000502000004
S3150100A100FFFFFFFFFFFFFFFFFFFFFFFFFFFFFFFF58
S3090100A110FFFFFFFF48
S3090100A134FFFFFFFF24
S3150100A200FFFDFFFFFFFFFFFFFFFFFFFFFFFFFFFF59
S3150100A210FFFFFFFFFFFFFFFFFFFFFFFFFFFFFFFF47
S3150100A220FFFFFFFFFFFFFFFFFFFFFFFFFFFFFFFF37
S3150100A230FFFFFFFFFFFFFFFFFFFFFFFFFFFFFFFF27
S3150100A240FFFFFFFFFFFFFFFFFFFFFFFFFFFFFFFF17
S3150100A250FFFFFFFFFFFFFFFFFFFFFFFFFFFFFFFF07
S3150100A260FFFFFFFFFFFFFFFFFFFFFFFFFFFFFFFFF7
S3150100A270FFFFFFFFFFFFFFFFFFFFFFFFFFFFFFFFE7
S3150100A280F8F8FFFFFFFFFFFFFFFFFFFFFFFFFFFFE5
S3150100A290FFFFFFFFFFFFFFFFFFFFFFFFFFFFFFFFC7
S3150100A2A0FFFFFFFFFFFFFFFFFFFFFFFFFFFFFFFFB7
S3150100A2B0FFFFFFFFFFFFFFFFFFFFFFFFFFFFFFFFA7
S3150100A2C0FFFFFFFFFFFFFFFFFFFFFFFFFFFFFFFF97
S70500001F6972
