S01C00005050474D6F64655F4F42313230335F5465616D342E73726563CC
S31500000000D8080020C9290000F1270000C5290000F2
S31500000010C5290000C5290000C5290000C529000022
S31500000020000000000000000000000000C5290000DC
S31500000030C529000000000000C5290000C5290000F0
S315000000409D190000111900002D1A0000751A0000F4
S31500000050792100000D2300002D2400000D2500004D
S31500000060000000000000000000000000000000008A
S31500000070000000000000000000000000000000007A
S31500000080000000000000000000000000000000006A
S31500000090000000000000000000000000000000005A
S315000000A0000000000000000000000000000000004A
S315000000B0000000000000000000000000000000003A
S315000000C0000000000000000000000000000000002A
S315000000D0000000000000000000000000000000001A
S315000000E0000000000000000000000000000000000A
S315000000F000000000000000000000000000000000FA
S3150000010000000000000000000000000000000000E9
S3150000011000000000000000000000000000000000D9
S3150000012000000000000000000000000000000000C9
S3150000013000000000000000000000000000000000B9
S3150000014000000000000000000000000000000000A9
S315000001500000000000000000000000000000000099
S315000001600000000000000000000000000000000089
S315000001700000000000000000000000000000000079
S315000001800000000000000000000000000000000069
S315000001900000000000000000000000000000000059
S315000001A00000000000000000000000000000000049
S315000001B00000000000000000000000000000000039
S315000001C00348044B834202D0034B03B118477047E0
S315000001D0AC000020AC00002000000000064B0749E0
S315000001E0C91A891048BF0131491003D0044B0BB11D
S315000001F001481847704700BFAC000020AC00002043
S315000002000000000010B5064C237843B9FFF7D8FF6D
S31500000210044B13B10448AFF300800123237010BDD3
S31500000220C800002000000000FC3A000008B5054B9D
S315000002301BB105490548AFF30080BDE80840FFF74C
S31500000240CDBF00BF00000000CC000020FC3A00003B
S31500000250022800D070470249024801F0EBBC00BFFB
S31500000260A8360000E80000200379022B02D1012203
S31500000270014B1A70704700BFE500002008B5084B17
S315000002809B68D3E9011218681268904700B908BD47
S3150000029040F20911034B044A044802F075FA00BF04
S315000002A00000002048340000A83500005C3400003F
S315000002B00379012B02D00122014B1A70704700BF4F
S315000002C0E400002008B5074BD3E90112186812684C
S315000002D0904700B908BD40F24111034B034A044858
S315000002E002F052FA38360000483400008835000023
S315000002F05C34000000222DE9F0432A4B2A4C1D688D
S31500000300D3F8089007469DB02846D9F804308846A9
S315000003102270984748BB2378002BFCD00026267015
S315000003202846D9F8243001A99847002832D12378E5
S31500000330002BFCD09DF806302670002BF0D04246EC
S315000003402846D9F80C3004A99847E0B92378002B41
S31500000350FCD0284600253A46D9F8103004A9257065
S31500000360984748B91DB0BDE8F0834FF4AD710F4B07
S315000003700F4A104802F008FA40F289110B4B0C4A5A
S315000003800C4802F001FA4FF4BF71084B084A0948BD
S3150000039002F0FAF94FF4B871044B054A054802F029
S315000003A0F3F900BF38360000E400002048340000AE
S315000003B0583500005C34000000222DE9F041294B3D
S315000003C0294C1D68D3F8088007469CB02846D8F803
S315000003D004302270984740BB2378002BFCD00026BF
S315000003E026702846D8F8243001A99847002831D12C
S315000003F02378002BFCD09DF80C302670002BF0D013
S315000004002846D8F8143004A99847E0B92378002B79
S31500000410FCD0284600253A46D8F8183004A925709D
S31500000420984748B91CB0BDE8F08140F2A1110F4BC6
S315000004300F4A104802F0A8F94FF4E8710B4B0C4A2A
S315000004400C4802F0A1F940F2C511084B084A0948C8
S3150000045002F09AF940F2B711044B054A054802F03A
S3150000046093F900BF38360000E4000020483400004D
S31500000470243500005C340000A1F1500C844510B511
S31500000480A1F1B40E03DA02F16403834221DB00F129
S315000004906403734503DA02F1640474451BDB93427B
S315000004A003DA01F16404944217DB02F16404844226
S315000004B001DA744513DB844501DA944511DB6539AD
S315000004C0814204DB9342B4BF0620072010BD0720FB
S315000004D010BD012010BD022010BD032010BD042058
S315000004E010BD052010BD00BF2DE9F04F0026BDB0A0
S315000004F0C82200210AA802F0FFFAAD49AD4801F072
S3150000050037F8FFF7BBFEFFF7DDFEAB4BDFF8D49203
S31500000510D3F804A0A94CA74DDFF8CCB2EFF31082B4
S31500000520012383F31088D9F800301BB9A449CB7096
S315000005304023CB70D9F800300133C9F8003082F37C
S315000005401088002105A8FFF7D5FEDFF8A0C20AAF84
S31500000550BCE80F000FC7DCF800300AA83B80267005
S3150000056002F0E7FA0AA90246284600F0B7FF237808
S3150000057033B90121084602F00FF92378002BF8D091
S31500000580059A90490AA802F097FA0AA8267002F07E
S31500000590D0FA0AA90246284600F0A0FF237833B90C
S315000005A00121084602F0F8F82378002BF8D0069AC5
S315000005B085490AA802F080FA0AA8267002F0B9FA5C
S315000005C00AA90246284600F089FF237833B901219B
S315000005D0084602F0E1F82378002BF8D0079A7B4909
S315000005E00AA802F069FA0AA8267002F0A2FA0AA975
S315000005F00246284600F072FF237833B901210846E7
S3150000060002F0CAF82378002BF8D0089A70490AA895
S3150000061002F052FA0AA8267002F08BFA0AA90246DC
S31500000620284600F05BFF237833B90121084602F023
S31500000630B3F82378002BF8D0099A66490AA802F085
S315000006403BFA0AA8267002F074FA0AA9024628465E
S3150000065000F044FF237833B90121084602F09CF8E4
S315000006602378002BF8D004A8FFF7A6FEDFF880C198
S315000006700AAFBCE80F000FC79CE8030047F8040B5D
S315000006800AA83980267002F054FA0AA902462846BA
S3150000069000F024FF237833B90121084602F07CF8E4
S315000006A02378002BF8D0BDF810204B490AA802F099
S315000006B003FA0AA8267002F03CFA0AA9024628465E
S315000006C000F00CFF237833B90121084602F064F8E4
S315000006D02378002BF8D0DDE906120898FFF7CCFE48
S315000006E03E4902460AA802F0E7F90AA8267002F077
S315000006F020FA0AA90246284600F0F0FE237833B90C
S315000007000121084602F048F82378002BF8D04FF470
S315000007107A714FF4FA7002F03FF8314B0AA80A9347
S31500000720267002F006FA0AA90246284600F0D6FE0E
S31500000730237833B90121084602F02EF82378002BDE
S31500000740F8D0274B0AA80A93267002F0F2F90AA9F4
S315000007500246284600F0C2FE237833B90121084636
S3150000076002F01AF82378002BF8D0DDE90612BAF861
S31500000770003008980193BAF80230BAF8088002935C
S31500000780BAF80430BAF80A700393BAF80630009340
S31500000790FFF772FE0138009B06283FF6BFAEDFE882
S315000007A010F02101FC00BE0094007D0053002900DA
S315000007B00436000030010020B43A0000E5000020B5
S315000007C0000D08408434000098340000AC3400006A
S315000007D0C0340000D4340000003500001835000095
S315000007E01B5B4800FC010020000808407034000034
S315000007F0E83400001A0A120152FA83F35BF8231058
S315000008008B4A4FF4FA70114041F004014BF8231063
S315000008104FEA18231B0153FA88F85BF828304FF487
S315000008207A71134043F004034BF828303B0A1B014E
S3150000083053FA87F75BF82730134043F004034BF86D
S31500000840273001F0A9FF69E61A0A120152FA83F36A
S315000008505BF82310764A114041F005014BF823104E
S315000008604FEA18231B0153FA88F35BF82310114053
S3150000087041F004014BF823103B0A1B0153FA87F39E
S315000008805BF823104FF4FA700A4042F004024FF46A
S315000008907A714BF8232001F07FFF3FE61A0A120116
S315000008A052FA83F35BF82310614A114041F00401C8
S315000008B04BF823104FEA18231B0153FA88F35BF811
S315000008C02310114041F00501D4E71A0A120152FA29
S315000008D083F35BF82310564A4FF4FA70114041F047
S315000008E004014BF823104FEA18231B0153FA88F32F
S315000008F05BF82310114041F004014BF823103B0A2A
S315000009001B0153FA87F35BF823100A4042F00502F5
S315000009104FF47A714BF8232001F03EFFFEE51A0AE8
S31500000920120152FA83F25BF82210414B194041F052
S3150000093005014BF822104FEA1822120152FA88F2EA
S315000009405BF82210194041F005014BF822103A0AD3
S31500000950120152FA87F25BF82210194041F00401A5
S315000009604BF82210039A170A3F0157FA82F75BF8F1
S3150000097027204FF47A711A4042F005024BF82720DF
S315000009804FF4FA7001F008FF5BF82720284B13405C
S3150000099043F004034BF82730C0E51A0A120152FA55
S315000009A083F25BF82210224B194041F005014BF807
S315000009B022104FEA1822120152FA88F25BF822102E
S315000009C0194041F004014BF822103A0A120152FA7A
S315000009D087F25BF82210194041F005014BF822100E
S315000009E0029AC0E71A0A120152FA83F25BF8221041
S315000009F00F4B194041F004014BF822104FEA182220
S31500000A00120152FA88F25BF82210194041F00501F2
S31500000A104BF822103A0A120152FA87F25BF82210BA
S31500000A20194041F005014BF82210019A9BE700BFDF
S31500000A30FE3FFEFF08B5FFF757FD002008BD00BFCB
S31500000A400620704710B5436A9B7E023B032B04D8F1
S31500000A50DFE803F0021F1D1B0432043A01F10F0404
S31500000A608B7891F801E01B0491F800C003F4702321
S31500000A7003EB0E23634442F8043F436A03319B7E33
S31500000A800BB98C42ECD1002010BD1032E5E70C32D8
S31500000A90E3E70832E1E700BF0B88002013807047C8
S31500000AA00620704706207047062070471723426AC3
S31500000AB00372937982B001917BB9BDF80430C3F318
S31500000AC00903D3830322436ADB8B190A817200F17F
S31500000AD00801437202B000F03DBABDF80630C3F318
S31500000AE00903EEE710B501244FF0230C02224477E8
S31500000AF0446A82B02173C1F3072EADF80410416A2F
S31500000B0081F805E0416A80F808C0097B417200F16E
S31500000B10080102B0BDE8104000F01CBA00B583B071
S31500000B2002AB03E906009DF800309DF804C0012BD6
S31500000B30426A16D0022300211371436A9DF803E02E
S31500000B4083F81CE0436A83F81DC0436A1A7F5B7F03
S31500000B5042F0010203F00F0303B05DF804EB00F06E
S31500000B607FBB1371436A9DF802109DF801205972EC
S31500000B70436A1A720022436A83F80AC0436A597AA2
S31500000B8093F808C09B7A41EA0C011B0141F0010170
S31500000B90DBB203B05DF804EB00F062BB426A0346C9
S31500000BA012794FF0020C022A04BF0122827740F22A
S31500000BB0012284B003F812CF01930291ADF80C2004
S31500000BC004AB13E90E0004B000F068B90346406AAE
S31500000BD084B0827632B1901E03281BD94FF0030CE5
S31500000BE0042202E04FF00F0C0422586A02910079A9
S31500000BF00121012808BF9877184603F8122F0193A0
S31500000C008DF80DC08DF80C1004AB13E90E0004B07E
S31500000C1000F044B902EB420201324FF0030CD2B2AB
S31500000C20E3E700BF436A1B790BB1012383770022F8
S31500000C30114600F005BB00BF436AD97A93F807C096
S31500000C40DA7E41EA0C0142F0010241F0010100F0B6
S31500000C50F7BA00BF232170B5436A01721B7B00F10E
S31500000C600805022229464372044600F073F900B1D2
S31500000C7070BD4FF0220C636A84F808C05B7E0222C6
S31500000C8029462046637200F065F90028F0D1242336
S31500000C900822666A237233692946C3F31303637213
S31500000CA023FA02FC1B0C84F80AC0E372736920461F
S31500000CB0C3F31303A3811B0CA373337EE37300F00A
S31500000CC049F90028D4D1636A2046597900F0D8FA48
S31500000CD00028CDD11726636A2672DB8B0322C3F365
S31500000CE0090363721B0A29462046A37200F032F9F3
S31500000CF00028BDD1636A2046997900F0CDFA002814
S31500000D00B6D11923666A237296F8203096F82460C5
S31500000D100222334329462046637200F01BF900285D
S31500000D20A6D11B26636A26725E8C032266725B8CD2
S31500000D3029461B0A2046A37200F00CF9002897D119
S31500000D401A26636A267293F82A300222294620461A
S31500000D50637200F0FFF800288AD11D23666A2372A9
S31500000D6096F82C3096F82B6003F07F03334302226B
S31500000D7029462046637200F0EDF800287FF478AF2C
S31500000D801E26636A26722946DD8C05226572DD8C75
S31500000D9020462D0AA5721D8DE5721B8D1B0A237335
S31500000DA000F0D8F800287FF463AFD4E909326AB1BD
S31500000DB01A79012A14D0022A0AD0187100231A4679
S31500000DC019462046BDE8704000F04ABA1A71F5E7A8
S31500000DD01A7F5B7F014642F0010203F00F03F0E742
S31500000DE01A7A597A9B7A11431B01024641F0010196
S31500000DF0DBB2E6E706207047436A1B685B68184764
S31500000E00436A1B689B681847436A1B68DB68184778
S31500000E10436A1B681B691847436A1B685B69184766
S31500000E20436A1B689B691847436A1B68DB69184756
S31500000E30436A1B681B6A1847436A82B01B68ADF891
S31500000E4004100199DB6A02B0184700BF436A82B0FA
S31500000E501B6801911B6B02B0184700BF82B06B463E
S31500000E6083E8060093E80600436A1B689B6A02B0A3
S31500000E70184700BF436A1B685B6B184710B50446EA
S31500000E80036A9A68186853689847A36A13B120469C
S31500000E9000F04EFA0020206010BD00BF2DE9F041A1
S31500000EA084B001AF87E80E001F4B026805469A42E0
S31500000EB04FF005082FD197E80E00286A846800686D
S31500000EC02469A047064638B9174B2A689A4207D1C3
S31500000ED06B7C002B18BF1226304604B0BDE8F081AB
S31500000EE0044607E0013401212846A4B200F0FEF9C9
S31500000EF0652C13D02B7C002BF4D00B4B2A689A421E
S31500000F00E6D06B7C002BE3D008F1FF381FFA88F897
S31500000F10B8F1000FDCD000232B74CCE71426304642
S31500000F2004B0BDE8F08100BF21572A6303460022C2
S31500000F3040F2012C84B0416103F8122F00F1080140
S31500000F400193ADF80CC0029104AB13E90E0004B096
S31500000F50FFF7A4BF2DE9F84390461D4B02680546EE
S31500000F609A4289464FF005072BD12B6A424698686C
S31500000F704946C4681868A047064638B9144B2A681B
S31500000F809A4206D16B7C002B18BF12263046BDE86C
S31500000F90F883044607E0013401212846A4B200F094
S31500000FA0A5F9652C10D02B7C002BF4D0084B2A68B1
S31500000FB09A42E7D06B7C002BE4D0013FBFB2002FF2
S31500000FC0E0D000232B74D0E714263046BDE8F88322
S31500000FD021572A63F0B50D46002341604A680E6921
S31500000FE0026289680446C0E90961E96885B0C162A0
S31500000FF069690163A9690377416343774361836143
S3150000100083779368D2E900011B68984788B9A36A79
S315000010101BB1204600F072F958B91522002304F1DD
S3150000102008072281394603222046A372FFF792FF62
S3150000103008B105B0F0BD48F2150302223946204634
S315000010402381FFF787FF0028F3D10A21204600F00D
S315000010504DF90028EDD1234640F2012203F8120F84
S3150000106001930297ADF80C2004AB204613E90E005D
S31500001070FFF714FF0028DCD13368294620461B6899
S3150000108098470028D5D1014B2360D2E721572A6320
S3150000109010B502790468131E18BF0123E06A86B0F2
S315000010A001908DF8083065492068884204D00122F5
S315000010B02274637406B010BD002A46D16369002B02
S315000010C04AD094F908100029B8BF01221A70237A71
S315000010D0626913F0020318BF01235370237A626911
S315000010E013F0010318BF0123937094F90920636973
S315000010F0002AB4BF01220022DA70637A626913F013
S31500001100200318BF01231371637A626913F0100379
S3150000111018BF01235371637A626913F0040318BF81
S3150000112001239371637A626913F0020318BF0123E6
S31500001130D371637A626913F0010318BF0123137236
S315000011400022236B62611BB9B4E7236B002BB1D07D
S3150000115001A8984706B010BDA26902B3217A607A49
S3150000116081422EBF0B4601F12003DBB21B1A606AD7
S31500001170DBB290F82D00117004284FF00000A26930
S31500001180617A08BF03F0FE035170A269A17A9170DB
S31500001190A269D370236BA061002BD9D18AE7237F84
S315000011A003F0FF011BBB637F03F0FF02002B31D16D
S315000011B0A37F002BC9D0234640F20121A27704F178
S315000011C0080003F8122F04900393ADF8141006AB31
S315000011D0204613E90E00FFF761FE00283FF46AAFD0
S315000011E00122236B8DF80820002BB1D162E7636AD8
S315000011F022771B792146032B04BF0123A3773823CB
S315000012000422204641F8083FFFF7A4FE00283FF4D9
S3150000121051AFE5E74FF02E0C636A61775B790222E6
S3150000122043F009032046637204F1080184F808C0FC
S31500001230FFF790FE00283FF43DAFD1E721572A6320
S3150000124000B594464FF0150E417280F808E080F81C
S315000012500AC003225DF804EB00F10801FFF77ABE2D
S3150000126010B596462B244172047280F80AE0C372C8
S315000012700422BDE8104000F10801FFF76BBE00BF75
S315000012804FF02E0C41F009014172022280F808C08D
S3150000129000F10801FFF75EBE4FF02F0C41720222EB
S315000012A080F808C000F10801FFF754BE00B50368D6
S315000012B083B0596AD86A0A790090022A10D0032AA4
S315000012C00CD0012A14BF012204225B6B8DF8042086
S315000012D00BB16846984703B05DF804FB0222F4E7B9
S315000012E00A7F022A0CBF03220422EEE708B508464D
S315000012F04FF47A7101F050FA002008BD70B5846A87
S315000013000546D4E9011320681B68984768B9A168A7
S3150000131003462A462068CD680449A84728B9A36829
S3150000132020685B68BDE87040184770BDAD120000CC
S3150000133008B5836A9A68186813699847002008BD3B
S315000013400346002230B419604D68064C5D608D6816
S3150000135010469D600D69DD61C9681A761962DC6008
S3150000136030BC704721332C320346002259681046A0
S315000013704A60DA60704700BF00F02AB800F04AB849
S3150000138084B00DF1040C8CE80E009CE80E0004B04D
S3150000139000F058B843685A68824217D070B59D6805
S315000013A08668AB680446327B1B69B1682868984733
S315000013B058B9626803465460A96822464C69286891
S315000013C0A446F169BDE87040604770BD00207047D3
S315000013D02DE9F041436804460E461746D3F80880C7
S315000013E0FFF7D8FFA0B9227E0546002A03461ABF9A
S315000013F03D463046002025616061D8F808403A46EF
S3150000140064683146A446D8F80000BDE8F04160475C
S31500001410BDE8F0812DE9F041436804460F461546C4
S315000014209E68FFF7B7FF58B9C4E904000346B068E1
S315000014302A4684683946A4463068BDE8F0416047CC
S31500001440BDE8F08130B585B004AC04E90E00436810
S3150000145004469D68FFF79EFF80B9029A9DF80D30FD
S315000014600199C4E90432AA68012394682868A4464D
S315000014709DF80C2005B0BDE83040604705B030BD92
S3150000148070B5046803796268216A023B82B0012B59
S315000014909268009116D8002561698DF80450C1B193
S315000014A0936810685E6822692B46B047C4E9045504
S315000014B030B10322E3698DF804200BB168469847E2
S315000014C002B070BD93681068DB68984703238DF8F7
S315000014D00430E369002BF1D102B070BD10B4046A88
S315000014E0A37803F07B03A3708378046A03F00303F5
S315000014F0D21A0B44C0E90332A37843F08003A370E9
S31500001500837803F00303022B06D0036A0A780020CF
S31500001510DA705DF8044B70470B88026A43F47E4329
S31500001520D38100205DF8044B704700BFF0B5846A94
S3150000153085B005460F4694466E46B4B194E80F0052
S3150000154086E80F00EB6920461B78A760236084F8C5
S3150000155004C0EB6AE3606B6A9847AC6A1CB196E814
S315000015600F0084E80F0005B0F0BD3446EAE700BF7F
S31500001570034600222DE9F041012508781A7000F58E
S31500001580800000F58C500002C3E907104869D14C71
S3150000159058628E699878C3E90A2665F30100987047
S315000015A04878904214BF2E460226987866F30100CA
S315000015B0987091F90BC091F80AE04FEA5C100CF0B4
S315000015C01F06203005FA06F644F82060BFF34F8F59
S315000015D0BFF36F8FC0480CF1C00650F8267062F357
S315000015E0104740F8267050F82660BC4E4FEA0E1E93
S315000015F004EB0C075FFA8EFE87F800E346F82C3002
S3150000160091F905C091F804E04FEA5C170CF01F0849
S31500001610203705FA08F844F82780BFF34F8FBFF349
S315000016206F8F0CF1C00750F8278062F3104840F81E
S31500001630278050F827704FEA0E1E04EB0C075FFA5E
S315000016408EFE87F800E346F82C3091F907C091F832
S3150000165006E04FEA5C170CF01F08203705FA08F879
S3150000166044F82780BFF34F8FBFF36F8F0CF1C0078D
S3150000167050F8278062F3104840F8278050F827700A
S315000016804FEA0E1E04EB0C075FFA8EFE87F800E3A6
S3150000169046F82C3091F909C091F808E04FEA5C173A
S315000016A00CF01F08203705FA08F844F82780BFF326
S315000016B04F8FBFF36F8F0CF1C00750F8278062F38E
S315000016C0104840F8278050F827004FEA0E10C0B2A5
S315000016D0644484F8000346F82C30EFF3108685F353
S315000016E010884FF000450C787D48E540446824EAB0
S315000016F005044460406886F3108840F2F9301C6A9D
S31500001700A2701C6A22711C6A62721C6AA2721C6A2E
S31500001710E2721C6A62830A7820FA02F2D00702D5C6
S3150000172040201A6AD074062440F2F932186A047707
S315000017300878C240D20703D54FF478401A6A9082DF
S31500001740CA7848788C78D200032842EA041200F05E
S31500001750DA8000280CBFE220F2201C6AD2B2227086
S315000017601A6A9071C869027B082A00F0C8801C6A50
S31500001770520002F002026273002542788478D20198
S31500001780640104F02004D2B222431C6A2572047854
S31500001790023C012C1C6A40F2A780D2B2E27140687A
S315000017A01A6A847854704578147865F301041470C5
S315000017B0C4789474D479007804F0A30400F05C0033
S315000017C02043D0710020C3E90300C3E90500DC69AA
S315000017D0414A94F90540CD6904F1C00152F82160EF
S315000017E095F800C060F3104642F821600CF0030C37
S315000017F052F82110BFF35F8F4FF0010E6109890087
S3150000180004F01F0401F1604101F561410EFA04F490
S31500001810C1F880410C60D96991F90B4004F1C0010F
S3150000182052F8216060F3104642F8216052F8211008
S31500001830BFF35F8F6109890004F01F0401F1604165
S315000018400EFA04F401F56141C1F880410C60D969D2
S3150000185091F9074004F1C00152F8216060F3104687
S3150000186042F8216052F82110BFF35F8F61098900A9
S3150000187004F01F0401F160410EFA04F401F5614120
S31500001880C1F880410C60D96991F9091001F1C004D1
S3150000189052F8246060F3104642F8246052F824207F
S315000018A0BFF35F8F4A09920001F01F0102F1604207
S315000018B00EFA01F102F56142C2F8801111601A6A4E
S315000018C04CF0700C82F802C06989064A19815A6088
S315000018D0BDE8F08100E100E0006000400002002069
S315000018E00040084055494353FF256570007802289B
S315000018F008BF42F01002186AD2B2C27162E70A2427
S315000019001A6A547338E7F22042F0400225E700BF16
S31500001910EFF30383103B1F4A5BB203F1C00152F899
S31500001920210020F4803042F8210052F821201A4A82
S3150000193052F82300C3691B6983B1036903B1704779
S31500001940026A0021937803F07F0343F00403937047
S31500001950436AC160C3B18022FFF7E8BD0369026A2A
S31500001960002BEED08378C16803F00303022B0CD062
S315000019700B78D3708278D0E9031302F003029B1A26
S315000019801144C0E90313D9E770470B8843F47E433B
S31500001990D381EFE7006000400002002010B582B05E
S315000019A0EFF30383103B1F4A5BB203F1C00152F809
S315000019B0210020F4803042F8210052F821201A4AF2
S315000019C052F82340A27802F00303022B236A0CBFCD
S315000019D0198A5979A3690CBFC1F30801C9B20191EB
S315000019E043B9636AB3B10422204602B0BDE8104091
S315000019F0FFF79CBD02F0030201A9606901F08CF8B3
S31500001A00D4E90521A37803F003031A44C91AC4E9EB
S31500001A10052109B102B010BD636A002BFAD001227C
S31500001A20E2E700BF006000400002002010B5EFF3BF
S31500001A3003830E4A103B5CB252F82400026A937884
S31500001A4003F07B039370436A1BB102220021FFF768
S31500001A506DFD074A04F1C00352F8231021F48031CA
S31500001A6042F8231052F8233010BD00BF00020020B8
S31500001A700060004010B5EFF303831A4A103B5CB2D6
S31500001A8052F82400837803F00303022B036A0CBF89
S31500001A90198A597993F804C00CBFC1F30801C9B279
S31500001AA01CF0100F0CF0380206D093F81CC01CF086
S31500001AB0010F08BF42F0400293F804C00CF0C70CB7
S31500001AC083F804C0436A0BB1FFF730FD064A04F100
S31500001AD0C00352F8231021F4803142F8231052F843
S31500001AE0233010BD00020020006000402DE9F84FB1
S31500001AF00388DBB180464FF000094FF0010BDFF899
S31500001B0084A000241E4D4FEAC907D8F8043035F8E2
S31500001B10022BD919898891420AD00134032CF4D1B9
S31500001B20B8F8003009F101094B45EAD8BDE8F88F4D
S31500001B30DB590BFA04F603F0B853B3F1807FF6B223
S31500001B409AF8BB340ED03342E7D0012000F0F0FE05
S31500001B509AF8BB34012023EA06038AF8BB3400F066
S31500001B60B7FEDAE73342D8D1012000F0E1FE9AF859
S31500001B70BB34012033438AF8BB3400F0A9FECCE71E
S31500001B80843A000000E00140F8B50646FFF7AEFFD4
S31500001B90EFF31082012383F31088234F3B681BB9B0
S31500001BA02249CB704023CB703B6801333B6082F304
S31500001BB01088338823B300211D4D08E01B01134410
S31500001BC045F82340328801318BB29A4218D973689E
S31500001BD053F8314003EBC1029288E0034FEA122327
S31500001BE0D2B2EBD502EB031055F820E024F4803C8A
S31500001BF02EF4803E45F820E01B0145F820C0DEE7C4
S31500001C00EFF31082012383F310883B6813B13B681E
S31500001C10013B3B603B681BB980200449CB70C87010
S31500001C2082F31088F8BD00BFFC010020000D0840BB
S31500001C300008084008B5034B03600846FFF7A4FFF9
S31500001C40002008BD54524F500346002059601A72B6
S31500001C50704700BF84460020CCE90E32CCF8341021
S31500001C60704700BF0346044ADB6800209B1AB3FA9C
S31500001C7083F35B090B7070474349495230B5836B58
S31500001C8083B004460A466D46A3B193E8030085E88F
S31500001C900300E16B1A7119601846636B9847A36BD2
S31500001CA01BB195E8030083E80300002384F82B307A
S31500001CB003B030BD2B46ECE730B5424B83B01B6A10
S31500001CC001690193019B03F00F230193019A019D82
S31500001CD00B7C90F82C4094B9C2F30322DBB2A2EB42
S31500001CE0156293409B0804D1082003B030BD013B28
S31500001CF0FAD04A78D209FAD1B323CB71016900230D
S31500001D0090F82620846980F82720026880F82B3016
S31500001D10C46180F82D3080F8283080F82E300362B8
S31500001D2080F82F3080F83030546A227894F801E039
S31500001D30012A14BF4FF0040C4FF0050C6279120112
S31500001D4042EA4E0294F806E042EACE124CEA020259
S31500001D50D2B2CA7001690A7942F010020A710169A9
S31500001D600A7963F3C3020A7101690A7963F30412FB
S31500001D700A710269E179137961F3C7131371026974
S31500001D80537943F001035371036893F90F30002B25
S31500001D9007DB012203F01F040B495B09A24041F84F
S31500001DA02320BF220369DA7190F82C302BB100236F
S31500001DB080F82C30002003B030BD022203695A702F
S31500001DC0F8E700BF00E0014000E100E090F808C03D
S31500001DD0C0E90512BCF1010F80F82A3008D10022B3
S31500001DE0436880F826C05B0080F8243080F8252000
S31500001DF0002380F82930FFF75FBF00BF90F808C0C6
S31500001E00C0E90512BCF1010F80F82A300AD1002280
S31500001E10436880F826C05B0043F0010380F8243055
S31500001E2080F82520012380F82930FFF745BF00BF41
S31500001E302DE9F0434FF01F085F27DF260569DFF81D
S31500001E40B49185F8008005694FF0000C2F70056984
S31500001E504FF0B30E2E700568634A6E6A05693679CF
S31500001E60624C46F0E0062E740568614B6E6A0569A1
S31500001E70F67846F0E0066E7405686E6A0569B6780F
S31500001E80360106F0700646F00806AE7005686E6A02
S31500001E9005693778012F777814BF0426052646EAA8
S31500001EA04706F6B2EE7005686E6805694E4514BFC2
S31500001EB07726F7266E71056985F806C0056985F8E7
S31500001EC007E04E7B91F9115036015719F6B287F8A3
S31500001ED0006344F8250005F1C00653F826706CF33C
S31500001EE0104743F8267053F82660BFF35F8F4FF014
S31500001EF0010E6E09B60005EA080506F1604606F50C
S31500001F0061460EFA05F5C6F8805135604E7B91F9AB
S31500001F100F5036015719F6B287F8006344F82500CA
S31500001F2005F1C00653F826706CF3104743F8267087
S31500001F3053F82660BFF35F8F6E09B60005EA080501
S31500001F4006F160460EFA05F506F56146C6F88051BB
S31500001F5035604E7B91F9105036015719F6B287F865
S31500001F60006344F8250005F1C00653F826706CF3AB
S31500001F70104743F8267053F82660BFF35F8F6E094B
S31500001F80B60005EA080506F160460EFA05F506F5FF
S31500001F906146C6F8805135604D7B91F90E102D01D2
S31500001FA00A44EDB282F8005344F8210001F1C00260
S31500001FB053F822406CF3104443F8224053F8223081
S31500001FC0BFF35F8F4B099B0001EA080103F16043F1
S31500001FD00EFA01F103F56143C3F8801119609F22DF
S31500001FE003691A70BDE8F08300E100E000020020FA
S31500001FF00060004040420F0070B500250A7801607D
S3150000200002F5800202F51F62120202618A684260CE
S315000020100A7B0272CA6942630A6AC0E90E52EFF38A
S31500002020108C012282F310880B78C3F109039A40C1
S315000020300C4B5E6826EA02025A605B688CF31088D5
S31500002040FFF7F6FEC0E90755074B80F829504561B2
S3150000205080F82A50856180F82B50C36080F82C5098
S31500002060284670BD004008404349495238B500250E
S315000020700369DD710168FFF7DBFEB322836990F81F
S3150000208026100362036980F82C50C56180F8281079
S3150000209080F82A50DA71284638BD00BF38B50025C9
S315000020A004460369DD710168FFF7C2FEB320012310
S315000020B094F8262084F82C5084F82820A269E5613B
S315000020C02262226984F82A50D07122692849D57182
S315000020D02268E56092F91120500902F01F0203FA06
S315000020E002F2203041F82020BFF34F8FBFF36F8FED
S315000020F0226892F90E20500902F01F0203FA02F23A
S31500002100203041F82020BFF34F8FBFF36F8F226836
S3150000211092F91020500902F01F0203FA02F2203051
S3150000212041F82020BFF34F8FBFF36F8F226892F9DB
S315000021300F20500902F01F0203FA02F2203041F884
S315000021402020BFF34F8FBFF36F8FEFF3108083F321
S3150000215010882168074A0978C1F109018B40516846
S315000021600B435360536880F31088284638BD00BF80
S3150000217000E100E00040084010B582B0EFF30383B1
S31500002180103B5F4A5BB2C03352F8231021F4803112
S3150000219042F8231052F82330EFF30383594A103BD9
S315000021A05BB252F8234094F82D305BBBA369022B37
S315000021B022D9E369012B0ED12269137943F010036A
S315000021C013712269137943F0080313712269137995
S315000021D023F01003137123685B6ADB79002B3ED171
S315000021E001222369DB7CDBB28DF807309DF80730CE
S315000021F084F82D2002B010BD2269137943F0400304
S315000022001371D6E7E369002BF4D02268526AD279BB
S31500002210FAB9032B17D0022B26D0012B34D0226912
S31500002220236AD17C6269D154D4E907320132013B79
S31500002230C4E90732002BDDD121690A7963F38612DE
S315000022400A7102B010BD2269137943F0400313717D
S31500002250E5E705212046FFF711FDE369D9E70521EA
S315000022602046FFF70BFDBBE72269137943F0100305
S3150000227013712269137943F00803137122691379E4
S3150000228023F010031371CAE794F82A2072B3226868
S315000022901D4892F90F20510902F01F0203FA02F2BB
S315000022A0203140F82120BFF34F8FBFF36F8F0420FA
S315000022B02169CA7942F08002CA7121690A7942F01D
S315000022C010020A7121690A7922F008020A7121694D
S315000022D00A7922F010020A712269507021694A793E
S315000022E022F001024A7184F82C3098E7082122690D
S315000022F0537A03F0F7035372236959708FE700BFCF
S31500002300006000400002002000E100E010B5EFF39D
S315000023100383103B424A5BB2C03352F8231021F4C8
S31500002320803142F8231052F82330EFF303833D4AFD
S31500002330103B5BB252F8234094F82730002B3FD174
S3150000234094F82930002B3AD123685B6ADB792BB1EC
S3150000235094F82B3013B9236A002B5BD1E36921690A
S31500002360002B40D1CB79C02223F08003CB712169A9
S3150000237001E0013A02D0CB79DB09FAD12368284A79
S3150000238093F91030C03352F8231021F4803142F80B
S31500002390231052F82330236893F91030002B09DB01
S315000023A001215A09204803F01F03603201FA03F3A2
S315000023B040F822302269D37943F04003D37110BD2F
S315000023C094F82630032B1CD094F8242023699A74A1
S315000023D094F8282094F827300132013B84F828200D
S315000023E084F8273010BD236A6269D35C8B74D4E904
S315000023F007320132013BC4E90732002BDFD12169E4
S31500002400B0E794F82830022BDED194F83030002B58
S31500002410DAD110BD05212046FFF730FC9EE700BF4C
S31500002420006000400002002000E100E038B5EFF354
S315000024300383334A103B5BB252F8234023685B6A3E
S31500002440DB79002B48D194F829301BB194F827305A
S31500002450012B4FD0E369DBB12169C023CA7922F091
S315000024604002CA71216901E0013B02D0CA795206D5
S31500002470FAD4EFF30383103B224A5BB2C03352F81F
S31500002480231021F4803142F8231052F8233038BD4E
S3150000249094F82A202AB3012022681B4D92F90F20B6
S315000024A0510902F01F02203100FA02F245F82120FC
S315000024B0BFF34F8FBFF36F8F2169CA7942F0800255
S315000024C0CA7104212269517021694A7963F30002B5
S315000024D04A7184F82C00BFE705212046FFF7CEFBA2
S315000024E0B1E708212269537A03F0F703537223698F
S315000024F05970B1E794F83030002BADD0AAE700BF91
S31500002500000200200060004000E100E038B5EFF373
S3150000251003834C4A103B5BB252F823000269537A9C
S31500002520517ADC0601F0E00151725FFA83FC03F098
S3150000253003022BD503695978490647D4002401259F
S3150000254080F82B50DC710168FFF772FCB32290F81B
S31500002550263080F82C4080F82830C46180F82A4064
S315000025600369846929460462DA71FFF787FBEFF392
S315000025700383103B344A5BB2C03352F8231021F474
S31500002580803142F8231052F8233038BD002A56D144
S315000025901CF0080F0ED090F82B30002B3ED1B32242
S315000025A090F829100369C1F10301C9B2DA71FFF786
S315000025B065FBDCE790F82C200CF004032AB3002B13
S315000025C0D5D090F82B30002B37D1E8E7002AB5D1CB
S315000025D05A78C2F380115206DAD5082280F82B10F9
S315000025E05A70036801695A6A94791378527943EAF2
S315000025F0C41343EA021343F00203DBB2CB70026951
S31500002600537943F001035371B1E7002BAFD0036850
S315000026105B6ADB79002BAAD00421C8E70023B3212B
S3150000262090F826508469026980F82C3080F828508A
S315000026300462C36180F82A30D1710121B7E70369CA
S315000026407CE700BF0002002000600040064B0749FF
S3150000265093F826001A6A51F82030C2F30262044940
S31500002660D3400B60704700BF00E00140AC00002083
S315000026708C0300204AF2035001232F492F4A2DE9EB
S31500002680F043A1F8FE03A2F80431B2F804319BB27C
S31500002690002BFAD101244FF4004529482949C0E905
S315000026A003338560A2F80041274A8C600C60026003
S315000026B0264A01F5B83191F8265042600A6A81F837
S315000026C0804481F83630224B436191F83C30DA077A
S315000026D0FBD542F211740023174A0C8581F82A3083
S315000026E092F83C309B06FBD505244FF003090123E5
S315000026F0F1254FF0F00E4FF4254CDFF84080154FD2
S3150000270088F81C91176282F8264092F826401249F2
S3150000271050F82400146A114EC4F30264E04030609D
S315000027200D730B7281F80CE082F8303082F852306B
S31500002730A2F8FEC3BDE8F08300E0014000C00140FE
S31500002740AC00002000700040002D310100127A001C
S3150000275000C2EB0B21120120002000408C03002058
S3150000276010B50024064B012083F8284000F0E0F85D
S31500002770044B012083F8BB44BDE8104000F0A8B824
S315000027800030084000E0014000BEFEE7A0F1010075
S315000027900028FBD1704700BF4FF47A7310B400FBDA
S315000027A001F1114C114A2468B2FBF4F2A1FB0304B7
S315000027B03CB9B0FBF2F0800860B15DF8044BFFF75E
S315000027C0E5BF9200B1FBF2F1A1FB03132BB908465A
S315000027D00028F2D15DF8044B70474FF0FF3C5DF8DE
S315000027E0044B6046FFF7D2BF8C03002000CA9A3B19
S315000027F070B500240B4B0C4EB3F82021B3F84051B2
S31500002800ADB2154025FA04F3DB0704D556F824309B
S31500002810E0B203B198470134102CF3D1014BA3F871
S31500002820305170BD00600040BC01002030B503206F
S3150000283085B000F07DF86FF0FF054FF0FF31204CBA
S31500002840002322464FF0010E1E488564CDE9011192
S31500002850039104F1C00532F8020F590960B104A8CA
S3150000286000EB810151F80C0C03F01F0C0EFA0CFC66
S3150000287020EA0C0041F80C0C954203F10103EAD161
S315000028800199114B0F4A03201167C3F88012029970
S315000028905167C3F8841203999167C3F8881200F050
S315000028A017F80023094834F8022F03F1C001013359
S315000028B00AB140F82120A542F5D105B030BD00BFD0
S315000028C0323900000080004000E100E00060004076
S315000028D0EFF31081012383F31088124B33F8102095
S315000028E092B22AB133F81020013A92B223F810209E
S315000028F033F810309BB293B910B40B4A0B4CB2F8B4
S31500002900FE3334F810009BB243F4254323EA000358
S31500002910A2F8FE3381F310885DF8044B704781F30B
S31500002920108870478003002000E00140AC3A0000A8
S3150000293030B4EFF31081012383F310880E4A32F886
S3150000294010309BB26BB90D4C0D4DB4F8FE3335F813
S3150000295010C09BB243EA0C0343F425439BB2A4F890
S31500002960FE3332F8103001339BB222F8103081F377
S31500002970108830BC704700BF8003002000E0014093
S31500002980AC3A000008B50C4A0346106840B1033360
S315000029900A4923F0030303448B4205D8136008BD9C
S315000029A0074908461160F2E700F0AEF80C2203462C
S315000029B01A604FF0FF3008BD88030020D8040020BD
S315000029C0D804002000BE704708B500F003F8FEF7F3
S315000029D031F8FEE74FF4700270B52B4B2B4CC3F861
S315000029E0882000209C60FDF733FCFFF743FE0120A2
S315000029F0FDF72EFC2368A3F5806383F30A88244839
S31500002A00244A0021121A00F077F82348234A244961
S31500002A10121A00F081F8234D234B5B1B002B07DDB8
S31500002A2000249E1055F8043B01349847A642F9DC71
S31500002A30FFF70CFEFFF794FE0320FFF779FF002354
S31500002A404FF6FF70194903F1080201330C2B21F8E8
S31500002A501200F8D100240320FFF73AFF0320FFF706
S31500002A6067FF134B03205C609C60DC601C61FFF712
S31500002A702FFF0220FDF7ECFBFFF7D8FE2046BDE84E
S31500002A80704000F017B800BF00ED00E00000000045
S31500002A90C8000020D804002000000020AC00002060
S31500002AA0283B0000A4000020A8000020000D0840DC
S31500002AB000000E40704700BF0EB400B59CB06FF02A
S31500002AC000411DAB02900690079104910848094900
S31500002AD053F8042B059102A90068019300F086F9CA
S31500002AE0029B00221A701CB05DF804EB03B070471D
S31500002AF0540000200802FFFF02440346934200D11F
S31500002B00704703F8011BF9E7014B1868704700BFCF
S31500002B1054000020704770470A44431E914200D17A
S31500002B20704710B511F8014B914203F8014FF9D1E6
S31500002B3010BD034613F8012B002AFBD1181A0138E1
S31500002B407047FFFF38B50546002941D051F8043CCF
S31500002B500C1F002BB8BFE41800F0E0F81D4A1368FC
S31500002B6033B9636014602846BDE8384000F0DCB82D
S31500002B70A34208D9206821188B4201BF19685B68F7
S31500002B8009182160EDE71A465B680BB1A342FAD932
S31500002B9011685018A0420BD12068014450181160EA
S31500002BA08342E0D118685B68084453601060DAE736
S31500002BB002D90C232B60D6E7206821188B4202BF6E
S31500002BC019685B680918636008BF21605460CAE72A
S31500002BD038BD00BFD404002070B50F4E0C46054624
S31500002BE0316811B900F0A8FB30602146284600F094
S31500002BF0A3FB431C03D14FF0FF34204670BDC41C19
S31500002C0024F00304A042F8D0211A284600F094FBD1
S31500002C100130F2D1EFE700BFD00400202DE9F843E0
S31500002C20CD1C064625F0030508350C2D38BF0C25AE
S31500002C30002D01DBA94204D90C2333600020BDE836
S31500002C40F883DFF8D48000F069F8D8F800301C4625
S31500002C5044BB29463046FFF7BFFF431C044658D104
S31500002C60D8F800402746002F43D1002C4BD02368CC
S31500002C703946304604EB030900F05EFB814542D13C
S31500002C80216830466D1A2946FFF7A6FF01303AD073
S31500002C9023682B442360D8F800305A6862BBC8F812
S31500002CA000700FE02268521B20D40B2A17D9611935
S31500002CB0A342256018BF5960636808BFC8F80010B2
S31500002CC062514B60304600F02FF804F10B00231DD3
S31500002CD020F00700C21A1CBF1B1AA350AFE7626898
S31500002CE0A3420CBFC8F800205A60EBE7234664688D
S31500002CF0AEE73C467F68B6E71A465B68A342FBD15F
S31500002D0000235360DEE70C233046336000F00CF8F6
S31500002D1094E70560D6E700BFD40400200148FFF71A
S31500002D20F9BE00BFCC0400200148FFF7F4BE00BF87
S31500002D30CC0400202DE9F0471F468E6882460C46DB
S31500002D40BE4290460B682DD8B1F90C2012F4906F54
S31500002D5026D06569096905EB4505A3EB01097B1CCE
S31500002D6005EBD5754B446D109D4238BF1D46530586
S31500002D7027D52946FFF752FF064660B34A46216922
S31500002D80FFF7CAFEA38923F4906343F08003A3816F
S31500002D9026614E446561A5EB090526603E46A560A1
S31500002DA0BE4200D93E4632464146206800F0AAFAA5
S31500002DB0A36800209B1BA360236833442360BDE8FF
S31500002DC0F0872A4600F0D6FA06460028E0D12169A7
S31500002DD05046FFF7B7FE0C234FF0FF30CAF800301D
S31500002DE0A38943F04003A381E9E7FFFF2DE9F04FF4
S31500002DF098468B899DB007461B060D46144610D58E
S31500002E000B6973B94021FFF709FF2860286130B9C3
S31500002E100C233B604FF0FF301DB0BDE8F08F402320
S31500002E206B610023CDF80C804FF00109DFF8A0811B
S31500002E30099320238DF8293030238DF82A30234634
S31500002E409A4613F8012B0AB1252AF9D1BAEB040BDD
S31500002E500BD05B46224629463846FFF76BFF01300A
S31500002E6000F0A780099A5A4409929AF80030002B7C
S31500002E7000F09F8000234FF0FF320AF1010A04930D
S31500002E8007938DF853301A93CDE90523544605224E
S31500002E904F4814F8011B00F05FFA049AD8B9D0061F
S31500002EA044BF20238DF85330110744BF2B238DF8E0
S31500002EB053309AF800302A2B15D0079A5446002032
S31500002EC04FF00A0C214611F8013B303B092B4BD938
S31500002ED0B0B1079214E0A0EB0803A24609FA03F387
S31500002EE013430493D2E7039B191D1B68002B039120
S31500002EF0BBBF5B4242F0020207930793B8BF04923E
S31500002F0023782E2B0AD163782A2B32D1039B0234E5
S31500002F101A1D1B6843EAE37303920593DFF8C0A00A
S31500002F2003222178504600F017FA38B1A0EB0A00C8
S31500002F304022049B013482401343049314F8011B7E
S31500002F40062224488DF8281000F006FA002836D00C
S31500002F50214B1BBB039B073323F007030833039363
S31500002F60099B334409936AE70CFB02320C460120A5
S31500002F70A8E7002301344FF00A0C194605932046B2
S31500002F8010F8012B303A092A03D9002BC6D0059137
S31500002F90C4E70CFB012104460123F0E703AB2A46F4
S31500002FA004A9384600930D4BAFF30080421C064639
S31500002FB0D6D1AB895B063FF52DAF09982CE703AB5D
S31500002FC02A4604A938460093044B00F07DF8EDE745
S31500002FD0C83A0000D23A000000000000352D00007B
S31500002FE0CE3A00002DE9F047164698468A6807460D
S31500002FF00B690C46DDF820909342B8BF1346336048
S3150000300091F843200AB1013333602368990642BF21
S31500003010336802333360256815F0060506D104F1DE
S31500003020190AE36832689B1AAB422BDC94F84330EA
S315000030302268003B18BF0123920630D404F14302F4
S3150000304041463846C847013023D023681A3454F81D
S315000030500A2C03F00603042B0ABF54F80E5C002565
S3150000306033684FF0000608BFED1A54F8123C08BF4B
S3150000307025EAE5759342C4BF9B1AED18B5421AD1ED
S31500003080002008E00123524641463846C847013031
S3150000309003D14FF0FF30BDE8F0870135C1E7E118F5
S315000030A05A1C30200233224481F8430094F845101C
S315000030B082F84310C2E70123224641463846C847F4
S315000030C00130E6D00136D9E72DE9FF470F7E91465C
S315000030D080460C46782F9A460C9E01F1430207D88B
S315000030E0622F0AD8002F00F0D180582F00F0B88048
S315000030F004F1420684F842703AE0A7F16303152B07
S31500003100F6D801A151F823F06131000075310000B5
S31500003110F1300000F1300000F1300000F130000025
S3150000312075310000F1300000F1300000F130000090
S31500003130F1300000733200009F3100002D32000094
S31500003140F1300000F130000095320000F13000004F
S315000031509F310000F1300000F130000035320000F0
S3150000316033681A1D1B68326004F1420684F8423047
S3150000317001239CE033682068191D3160060601D5DD
S315000031801D6803E04506FBD5B3F90050002D03DAB0
S315000031902D236D4284F8433058480A2311E02168F4
S315000031A03368080653F8045B02D4490648BFADB23B
S315000031B06F2F3360514814BF0A230823002184F877
S315000031C043106668002EA66005DB21682E4321F0B9
S315000031D0040121604BD01646B5FBF3F103FB1157F2
S315000031E0C75D06F8017D2F460D46BB42F4D9082B74
S315000031F00BD12368DF0708D5236961689942DEBFD2
S31500003200302306F8013C06F1FF36921B22614B463D
S3150000321003AA21464046CDF800A0FFF7E3FE0130A1
S315000032204AD14FF0FF3004B0BDE8F087236843F081
S315000032302003236078273248236884F845701F06E8
S31500003240316851F8045B02D45F0648BFADB2316005
S31500003250D90744BF43F0200323601DB11023ADE717
S315000032602648E9E7236823F020032360F6E716469D
S31500003270BDE733682568181D616930602E061B6836
S3150000328001D5196002E06806FBD5198000231646B1
S315000032902361BCE7336800211A1D32601E6862682C
S315000032A0304600F059F808B1801B606063682361FE
S315000032B0002384F84330AAE723693246494640464C
S315000032C0D0470130ADD023689B0713D4E068039B39
S315000032D09842B8BF1846A6E70123324649464046FB
S315000032E0D04701309DD00135E36803995B1AAB42A4
S315000032F0F2DCEBE7002504F11906F5E7D93A000000
S31500003300EA3A0000884210B501EB020402D9844271
S31500003310234607D8431EA14208D011F8012B03F813
S31500003320012FF8E7024401468A4200D110BD13F886
S31500003330014D02F8014DF7E738B50023054D044667
S3150000334008462B60FFF71EFB431C02D12B6803B116
S31500003350236038BDC8040020C9B20346024410B534
S315000033609342184601D1002003E0047801338C42D1
S31500003370F6D110BD2DE9F041074614460D4621B998
S315000033801146BDE8F041FFF749BC2AB92546FFF7CB
S31500003390D9FB2846BDE8F08100F01AF884420646BB
S315000033A002D8B4EB500FF4D821463846FFF736FC66
S315000033B0804608B94546ECE7B4422246294628BF6E
S315000033C03246FFF7A9FB29463846FFF7BBFBF1E774
S315000033D051F8043C181F002BBCBF0B58C01870478F
S315000033E04275696C7420776974682052656E6573DE
S315000033F0617320416476616E63656420466C65780E
S3150000340069626C6520536F667477617265205061DE
S31500003410636B6167652076657273696F6E20352E02
S31500003420342E3000352E342E300000000000040506
S31500003430F8B500BFF8BC08BC9E467047F8B500BF9B
S31500003440F8BC08BC9E4670474653505F53554343ED
S31500003450455353203D3D2065727200002E2E2F737A
S3150000346072632F68616C5F656E7472792E630000FB
S315000034700A0D4F4231323033204C494748543A0AFC
S315000034800D000000636C6561725F646174613A20CF
S31500003490256C75200A0D0000677265656E5F6461B4
S315000034A074613A20256C75200A0D0000626C756502
S315000034B05F646174613A20256C75200A0D00000076
S315000034C07265645F646174613A20256C75200A0D2B
S315000034D000000000636F6D705F646174613A2025BF
S315000034E06C75200A0D0000000A0D4F423132303350
S315000034F02050726F78696D6974793A0A0D00000080
S3150000350070726F78696D6974795F646174613A206D
S315000035102575200A0D00000074657374202564204B
S315000035200A0D00FF675F6F62313230335F73656E7D
S31500003530736F72305F717569636B5F676574746909
S315000035406E675F70726F78696D6974795F6D6F64AD
S31500003550655F6461746100FF675F6F6231323033AB
S315000035605F73656E736F72305F717569636B5F67EA
S31500003570657474696E675F6C696768745F6D6F64A4
S31500003580655F6461746100FF675F6F62313230337B
S315000035905F73656E736F72305F717569636B5F73AE
S315000035A06574757000FFFFFF675F636F6D6D735F16
S315000035B06932635F627573305F717569636B5F73E0
S315000035C06574757000FFFFFFF0000020D435000021
S315000035D08C3A000000000000A086010000000000F8
S315000035E0010C0405060700000000000000000000B2
S315000035F08114000000000000FC3500000101031CDE
S315000036001C000000050200000C000C010C020C035B
S315000036100000000000000000690200000000000039
S315000036202436000000010000140000200F00FFFFF8
S3150000363000000000FFFF000060010020443600008B
S31500003640303A0000FFFFFFFF603600000000000078
S315000036500000000018000020B10200000000000079
S31500003660980100206C3600006C3A0000FFFFFFFF57
S31500003670000000208036000060010020911000004C
S3150000368000000000000000005300000001000000E0
S31500003690000000000000000000000000811400008F
S315000036A0000000000000000050000000B4360000DA
S315000036B00000000000800000000000000080000004
S315000036C001000000008000000200000000800000F1
S315000036D0030000001040000004000000104000003D
S315000036E00500000010400000060000001040000029
S315000036F008000000008000000E00000000800000AE
S315000037000F0000000000000004010000000000009F
S3150000371005010000000C0100080100000000000087
S315000037200B010000000C01120C010000000C01123C
S315000037300D010000000C01120E0100000000000047
S315000037400F01000000000105020200000000010553
S31500003750030200000000010504020000000001054C
S315000037600502000000000000060200000000000044
S31500003770070200000000000008020000450C0000DF
S315000037800A020000000C01170B020000000C0117D2
S315000037900E020000000C010000030000450C0000B2
S315000037A003030000450C000006030000450C000062
S315000037B007030000450C00000B030000400C010746
S315000037C000040000400C0107010400001040000046
S315000037D00204000010400000030400001040000036
S315000037E004040000000C011705040000000C01177A
S315000037F006040000000C011307040000450C00003D
S3150000380009040000000C01060A040000000C010671
S315000038100B040000000C01060C040000000C01065D
S315000038200D040000000000000E040000000000006F
S315000038300F040000000C010500050000000C010546
S3150000384001050000000C0105020500000000000053
S315000038500305000000000000050500000000000050
S3150000386006050000000C010508050000400C0107D4
S315000038700B050000400C01070C050000040C0000BD
S3150000388001060000040C000002060000040C000003
S3150000389003060000040C00000506000000000000FE
S315000038A008060000040C000009060000040C0000D5
S315000038B00A060000000000000B060000400C01058F
S315000038C00D060000400C01050E060000000C011359
S315000038D00F060000000C011700070000000C01177E
S315000038E001070000000C011702070000000C011779
S315000038F003070000000C011704070000000C011765
S3150000390005070000000C010506070000000C010574
S315000039100707000000000000080700000040000044
S31500003920030800000040000004080000000C01131A
S31500003930080A00009E019F01A001A1017300740006
S315000039407500760000000000000000000000000086
S315000039500000000000000000000000000000000061
S315000039600000000000000000000000000000000051
S315000039700000000000000000000000000000000041
S315000039800000000000000000000000000000000031
S315000039900000000000000000000000000000000021
S315000039A00000000000000000000000000000000011
S315000039B00000000000000000000000000000000001
S315000039C000000000000000000000000000000000F1
S315000039D000000000000000000000000000000000E1
S315000039E000000000000000000000000000000000D1
S315000039F000000000550C0000390C0000250C0000EA
S31500003A00CD0B0000450A00009D0B0000990A00003E
S31500003A10A10A0000A50A0000F50D00001D0B00001C
S31500003A20E50A0000AD0A0000A90A0000410A0000EC
S31500003A30D50F0000F90D0000010E0000090E000070
S31500003A40110E0000190E0000210E0000290E0000C4
S31500003A50310E00002D0F00005D0E0000390E000033
S31500003A604D0E0000750E00007D0E00004113000093
S31500003A7069130000791300007D1300008113000014
S31500003A8000000000020403040404FFFFF91F000005
S31500003A90FD1D0000CD1D00006D200000491C00002A
S31500003AA0551C0000651C00009D200000010002005E
S31500003AB00800100006000000BC3A00000A060906CD
S31500003AC00106020603060506232D302B2000686C2E
S31500003AD04C0065666745464700303132333435362B
S31500003AE03738394142434445460030313233343564
S31500003AF03637383961626364656600FF100000007E
S31500003B0000000000017A5200027C0E011B0C0D0021
S31500003B1010000000180000001AF0FFFF100000005F
S30D00003B20000000000000000097
S31500003B28FFFFFFFF00000000C8350000000000008E
S31500003B380000000040003500F439000001000002D2
S31500003B480000020001000000CC0C0000000000008C
S31500003B58042200000002000100000001180000060F
S31500003B680000150000000000000000000000000032
S31500003B78000000005800002000000000900300200C
S31500003B88F803002060040020000000000000000088
S31500003B980000000000000000000000000000000017
S31500003BA80000000000000000000000000000000007
S31500003BB800000000000000000000000000000000F7
S31100003BC8000000002D02000005020000B5
S3150100A100FFFFFFFFFFFFFFFFFFFFFFFFFFFFFFFF58
S3090100A110FFFFFFFF48
S3090100A134FFFFFFFF24
S3150100A200FFFDFFFFFFFFFFFFFFFFFFFFFFFFFFFF59
S3150100A210FFFFFFFFFFFFFFFFFFFFFFFFFFFFFFFF47
S3150100A220FFFFFFFFFFFFFFFFFFFFFFFFFFFFFFFF37
S3150100A230FFFFFFFFFFFFFFFFFFFFFFFFFFFFFFFF27
S3150100A240FFFFFFFFFFFFFFFFFFFFFFFFFFFFFFFF17
S3150100A250FFFFFFFFFFFFFFFFFFFFFFFFFFFFFFFF07
S3150100A260FFFFFFFFFFFFFFFFFFFFFFFFFFFFFFFFF7
S3150100A270FFFFFFFFFFFFFFFFFFFFFFFFFFFFFFFFE7
S3150100A280F8F8FFFFFFFFFFFFFFFFFFFFFFFFFFFFE5
S3150100A290FFFFFFFFFFFFFFFFFFFFFFFFFFFFFFFFC7
S3150100A2A0FFFFFFFFFFFFFFFFFFFFFFFFFFFFFFFFB7
S3150100A2B0FFFFFFFFFFFFFFFFFFFFFFFFFFFFFFFFA7
S3150100A2C0FFFFFFFFFFFFFFFFFFFFFFFFFFFFFFFF97
S705000029C908
