S01B00004C65644E6861704E6861795475616E547530312E737265631B
S315000000009804002041040000A90200003D040000FD
S315000000103D0400003D0400003D0400003D040000D6
S315000000200000000000000000000000003D04000089
S315000000303D040000000000003D0400003D040000F7
S315000000400348044B834202D0034B03B11847704761
S31500000050080000200800002000000000064B0749A9
S31500000060C91A891048BF0131491003D0044B0BB19E
S3150000007001481847704700BF08000020080000200C
S315000000800000000010B5064C237843B9FFF7D8FFEF
S31500000090044B13B10448AFF300800123237010BD55
S315000000A02800002000000000A406000008B5054B4B
S315000000B01BB105490548AFF30080BDE80840FFF7CE
S315000000C0CDBF00BF000000002C000020A4060000E9
S315000000D01E4B1A88002A37D0F0B54FF0010E402784
S315000000E080265D68DFF874C0194B1A481A4CEFF386
S315000000F010818EF310881A681AB98CF803208CF8D0
S3150000010003701A6801321A6081F310886A89110A2D
S31500000110090151FA82F250F82210214041F00401FF
S3150000012040F82210EFF310818EF310881A6812B18E
S315000001301A68013A1A601A681AB98CF803208CF802
S31500000140036081F31088D2E7FEE700BF9006000047
S315000001508400002000080840FE3FFEFF000D084016
S3150000016008B5FFF7B5FF002008BD00BF064B0749DD
S3150000017093F826001A6A51F82030C2F30262044945
S31500000180D3400B60704700BF00E00140080000202C
S31500000190900000204AF2035001232F492F4A2DE9EF
S315000001A0F043A1F8FE03A2F80431B2F804319BB281
S315000001B0002BFAD101244FF4004529482949C0E90A
S315000001C003338560A2F80041274A8C600C60026008
S315000001D0264A01F5B83191F8265042600A6A81F83C
S315000001E0804481F83630224B436191F83C30DA077F
S315000001F0FBD542F211740023174A0C8581F82A3088
S3150000020092F83C309B06FBD505244FF003090123E9
S31500000210F1254FF0F00E4FF4254CDFF84080154FD6
S3150000022088F81C91176282F8264092F826401249F7
S3150000023050F82400146A114EC4F30264E0403060A2
S315000002400D730B7281F80CE082F8303082F8523070
S31500000250A2F8FEC3BDE8F08300E0014000C0014003
S315000002600800002000700040002D310100127A00C5
S3150000027000C2EB0B2112012000200040900000205C
S3150000028010B50024064B012083F8284000F0ACF896
S31500000290044B012083F8BB44BDE8104000F074B85D
S315000002A00030084000E0014070B500240B4B0C4EB6
S315000002B0B3F82021B3F84051ADB2154025FA04F346
S315000002C0DB0704D556F82430E0B203B19847013471
S315000002D0102CF3D1014BA3F8305170BD00600040E3
S315000002E04400002030B5032085B000F07DF86FF0A3
S315000002F0FF054FF0FF31204C002322464FF0010E40
S315000003001E488564CDE90111039104F1C00532F858
S31500000310020F590960B104A800EB810151F80C0CD9
S3150000032003F01F0C0EFA0CFC20EA0C0041F80C0C32
S31500000330954203F10103EAD10199114B0F4A0320BB
S315000003401167C3F8801202995167C3F884120399A2
S315000003509167C3F8881200F017F80023094834F8AB
S31500000360022F03F1C00101330AB140F82120A54252
S31500000370F5D105B030BD00BFC605000000800040C5
S3150000038000E100E000600040EFF31081012383F3F9
S315000003901088124B33F8102092B22AB133F810208D
S315000003A0013A92B223F8102033F810309BB293B979
S315000003B010B40B4A0B4CB2F8FE3334F810009BB263
S315000003C043F4254323EA0003A2F8FE3381F31088A1
S315000003D05DF8044B704781F3108870478800002051
S315000003E000E001408806000030B4EFF310810123DD
S315000003F083F310880E4A32F810309BB26BB90D4C5D
S315000004000D4DB4F8FE3335F810C09BB243EA0C0329
S3150000041043F425439BB2A4F8FE3332F8103001337F
S315000004209BB222F8103081F3108830BC704700BFB1
S315000004308800002000E001408806000000BE7047EA
S3150000044008B500F005F8FFF78BFEFEE7704700BF22
S315000004504FF4700270B52B4B2B4CC3F8882000204C
S315000004609C60FFF7F3FFFFF795FE0120FFF7EEFF15
S315000004702368A3F5806383F30A882448244A00216D
S31500000480121A00F057F82348234A2449121A00F09A
S3150000049059F8234D234B5B1B002B07DD00249E10D0
S315000004A055F8043B01349847A642F9DCFFF75EFE97
S315000004B0FFF7E6FE0320FFF797FF00234FF6FF70D6
S315000004C0194903F1080201330C2B21F81200F8D167
S315000004D000240320FFF758FF0320FFF785FF134B87
S315000004E003205C609C60DC601C61FFF74DFF02200E
S315000004F0FFF7ACFFFFF7F6FE2046BDE8704000F0C0
S3150000050017B800BF00ED00E0000000002800002042
S31500000510940000200000002008000020A80600002B
S315000005200000002004000020000D084000000E40DE
S31500000530704700BF02440346934200D1704703F858
S31500000540011BF9E70A44431E914200D1704710B5DA
S3150000055011F8014B914203F8014FF9D110BDFFFF8D
S315000005604275696C7420776974682052656E65738C
S31500000570617320416476616E63656420466C6578BC
S3150000058069626C6520536F6674776172652050618D
S31500000590636B6167652076657273696F6E20352EB1
S315000005A0342E3000352E342E3000000000000405B5
S315000005B0F8B500BFF8BC08BC9E467047F8B500BF4A
S315000005C0F8BC08BC9E467047000000000000000012
S315000005D00000000000000000000000000000000015
S315000005E00000000000000000000000000000000005
S315000005F000000000000000000000000000000000F5
S3150000060000000000000000000000000000000000E4
S3150000061000000000000000000000000000000000D4
S3150000062000000000000000000000000000000000C4
S3150000063000000000000000000000000000000000B4
S3150000064000000000000000000000000000000000A4
S315000006500000000000000000000000000000000094
S315000006600000000000000000000000000000000084
S315000006700000000000000000000000000000000074
S315000006800000000000000000010002000800100049
S3150000069006000000980600000A0609060106020682
S30D000006A0030605060000000038
S30D000006A8AD0000008500000012
S3150100A100FFFFFFFFFFFFFFFFFFFFFFFFFFFFFFFF58
S3090100A110FFFFFFFF48
S3090100A134FFFFFFFF24
S3150100A200FFFDFFFFFFFFFFFFFFFFFFFFFFFFFFFF59
S3150100A210FFFFFFFFFFFFFFFFFFFFFFFFFFFFFFFF47
S3150100A220FFFFFFFFFFFFFFFFFFFFFFFFFFFFFFFF37
S3150100A230FFFFFFFFFFFFFFFFFFFFFFFFFFFFFFFF27
S3150100A240FFFFFFFFFFFFFFFFFFFFFFFFFFFFFFFF17
S3150100A250FFFFFFFFFFFFFFFFFFFFFFFFFFFFFFFF07
S3150100A260FFFFFFFFFFFFFFFFFFFFFFFFFFFFFFFFF7
S3150100A270FFFFFFFFFFFFFFFFFFFFFFFFFFFFFFFFE7
S3150100A280F8F8FFFFFFFFFFFFFFFFFFFFFFFFFFFFE5
S3150100A290FFFFFFFFFFFFFFFFFFFFFFFFFFFFFFFFC7
S3150100A2A0FFFFFFFFFFFFFFFFFFFFFFFFFFFFFFFFB7
S3150100A2B0FFFFFFFFFFFFFFFFFFFFFFFFFFFFFFFFA7
S3150100A2C0FFFFFFFFFFFFFFFFFFFFFFFFFFFFFFFF97
S70500000441B5
